:1007F00041540D0A004F4B0D0A0041542B43504900
:100800004E3F0D0A0052454144590041542B43527A
:1008100045473F0D0A00435245473A20302C3100EE
:10082000435245473A20302C350041542B51494F13
:1008300050454E3D22544350222C2200222C2200AF
:10084000220D0A00434F4E4E454354204F4B00416A
:10085000542B514953454E440D0A003E00494C6FFC
:1008600076654D43552E74616F62616F2E636F6DB7
:100870002025640D0A0041542B5149434C4F5345E8
:100880000D0A0041542B514944454143540D0A007F
:1008900041542B434D47533D2200415444003B0DEE
:1008A0000A003130332E34342E3134352E32343583
:1008B000003130333830000000000000000000003C
:1008C0000000000000000000000000000000000028
:1008D0000000000000000000000000000000000018
:1008E0000000000000000000000000000000000008
:1008F00000000000000000000000000000000000F8
:1009000000000000000000000000000000000000E7
:1009100000000000000000000000000000000000D7
:1009200000000000000000000000000000000000C7
:1009300000000000000000000000000000000000B7
:03094000000000B4
:100CED00042200000000023200000C263137337858
:100CFD0078787878787831001434494C6F76654D72
:0E0D0D0043552E74616F62616F2E636F6D002F
:10062C00120DC0750BFF750C07750DF5E47511B83F
:10063C0075100BF50FF50E75120A7BFF7A0779F022
:10064C00120A45EF64014E6003120D1F120D9C75CA
:10065C000BFF750C08750D05E47511E8751003F5A5
:10066C000FF50E75120A7BFF7A0779FA120A45EF1D
:10067C0064014E6003120D1F120D9C750BFF750C5F
:10068C0008750D16120A31EF64014E6018120D9C9C
:10069C00750BFF750C08750D20120A31EF64014EB5
:0506AC006003120D1FA8
:1006B10078647C007D017BFF7A0879B77E007F64D6
:1006C1001204527E007F647D007B017A00796412FE
:1006D100058B78647C007D017BFF7A08792A1205FD
:1006E1006E750BFF750C08750DA27B017A0079649C
:1006F100120C61750BFF750C08750D3C7B017A00BE
:100701007964120C61750BFF750C08750DB17B01D5
:100711007A007964120C61750BFF750C08750D4038
:100721007B017A007964120C61750BFF750C0875F9
:100731000D44E4751110751027F50FF50E751205AE
:100741007B017A007964120A45EF64014E6003125D
:100751000D1F7F647E000207EA750BFF750C08759B
:100761000D5BE47511B875100BF50FF50E751205DB
:100771007BFF7A08794F120A45EF64014E6003123C
:100781000D1F120D9C7E007F647D007B017A007934
:100791006412058B750BFF750C08750D5D85320EA6
:1007A10085330F7B017A0079641200820533E533CA
:1007B10070020532750B01750C00750D64E475113D
:1007C100B875100BF50FF50E7512017B017A0079E2
:1007D10064120A45EF64014E6003120D1F120D9C55
:0F07E1007F1A120DEB7FF47E01120DA002075A52
:060943008B5F8A608961F0
:1009490078C87C007D017BFF7A09791B7E007F14C2
:100959001204527E007F147D007B017A0079C8124F
:10096900058B78C87C007D017BFF7A087990120598
:100979006E855F0B85600C85610D7B017A0079C8F6
:10098900120C61750BFF750C08750D407B017A001F
:1009990079C8120C61750BFF750C08750D5BE47550
:1009A90011B875100BF50FF50E75120A7B017A0057
:1009B90079C8120A45EF64014E6003120D1F856262
:1009C9000B85630C85640DE47511B875100BF50F73
:1009D900F50E75120AAB62AA63A964120A45EF649F
:1009E900014E6003120D1F7E007F287D007B017A76
:1009F9000079C812058B9000C8741AF0E4A3F07549
:100A09000BFF750C07750DF5751110751027F50F8E
:100A1900F50E7512057B017A0079C8120A45EF6453
:070A2900014E6003120D1FD6
:010A300022A3
:060B5B008B488A49894A1B
:100B6100784B7C007D007BFF7A09792F7E007F1412
:100B71001204527E007F147D007B007A00794B12B3
:100B8100058B784B7C007D007BFF7A08799A1205F2
:100B91006E85480B85490C854A0D7B007A00794B9F
:100BA100120C61750BFF750C08750D9E7B007A00A8
:100BB100794B120C61750BFF750C07750DF5E4751A
:100BC1001110751027F50FF50E75120AFB7A0079D1
:0D0BD1004B120A45EF64014E6003120D1F28
:010BDE0022F4
:100D1F00750BFF750C07750DF5E4751164F510F57E
:100D2F000FF50E75120A7BFF7A0779F0120A45EF5D
:100D3F0064014E7003120DF37FC87E00120DA08068
:010D4F00CFD4
:030DF300020000FB
:100A3100E47511E8751003F50FF50E75120A7BFFC9
:040A41007A08790BAB
:060A45008B088A09890AF2
:100A4B00120DD8E4F513E513C395125070AB08AA39
:100A5B0009A90A120D77E4F525F524F523F522AF44
:100A6B0011AE10AD0FAC0EAB25AA24A923A822C33F
:100A7B00120491503B7F647E00120DA0E525246487
:100A8B00F525E43524F524E43523F523E43522F567
:100A9B0022850B17850C18850D197B017A007900BF
:100AAB00120BDFE94A4B60B7120DD87E007F012293
:100ABB00E4F525F524F523F52205138089120DD8CD
:030ACB00E4FEFF47
:010ACE002205
:040D9C007F0A7E004C
:100DA000E4FDFCC3ED9FEC9E5015E4FBFA0BBB0089
:0F0DB000010AEB647B4A70F50DBD00010C80E475
:010DBF002211
:030D1B000168006C
:100DC000759850D29CE4F587758920758DFD758BDB
:080DD000FDD28ED2AFD2AC229D
:080DEB008F993099FDC2992295
:100D77008B148A158916AB14AA15A9161204786064
:100D8700130516E5167002051514F9120478FF12FB
:050D97000DEB80E222DB
:100003008B658A6689678B178A1889197B017A0041
:0E0013007900120BDFE94A4B6002D322C322B0
:100DD8007E007F647D007B017A00790012058BE438
:030DE800F5682289
:03002300020CB913
:100CB900C0E0C083C082C0D0C2AC30981CC2987456
:100CC900002568F582E43400F583E599F00568E5C7
:100CD90068C394644003756800D2ACD0D0D082D088
:040CE90083D0E032A2
:03000000020ACF22
:0C0ACF00787FE4F6D8FD758168020B16F4
:10038200E709F608DFFA8046E709F208DFFA803E5D
:1003920088828C83E709F0A3DFFA8032E309F6084A
:1003A200DFFA8078E309F208DFFA807088828C83B2
:1003B200E309F0A3DFFA806489828A83E0A3F60866
:1003C200DFFA805889828A83E0A3F208DFFA804C40
:1003D20080D280FA80C680D4806980F28033801017
:1003E20080A680EA809A80A880DA80E280CA803380
:1003F20089828A83ECFAE493A3C8C582C8CCC583F8
:10040200CCF0A3C8C582C8CCC583CCDFE9DEE780C7
:100412000D89828A83E493A3F608DFF9ECFAA9F046
:10042200EDFB2289828A83ECFAE0A3C8C582C8CC9C
:10043200C583CCF0A3C8C582C8CCC583CCDFEADEB5
:10044200E880DB89828A83E493A3F208DFF980CC17
:1004520088F0EF60010E4E60C388F0ED2402B40410
:100462000050B9F582EB2402B4040050AF232345B7
:0604720082239003D27307
:10047800BB010689828A83E0225002E722BBFE0282
:09048800E32289828A83E49322B5
:10049100EB9FF5F0EA9E42F0E99D42F0E89C45F0C1
:0104A1002238
:10002600E517240BF8E60517227808300702780B47
:10003600E475F0011205F60204782000EB7F2ED25B
:10004600008018EF540F2490D43440D4FF30040BB2
:10005600EF24BFB41A0050032461FFE518600215AF
:1000660018051BE51B7002051A30070D7808E475A4
:10007600F0011205F6EF0205E4020D507403D207F3
:100086008003E4C207F5178B088A09890AE4F51884
:10009600F51AF51BE51860077F2012006180F575DB
:1000A60019FFC201C200C202C203C205C206C208CB
:1000B60012002FFF700D3007057F00120072AF1B74
:1000C600AE1A22B4255FC2D5C20412002FFF24D077
:1000D600B40A00501A75F00A781830D50508B6FF2C
:1000E6000106C6A426F620D5047002D20380D924C0
:1000F600CFB41A00EF5004C2E5D204020272D20154
:1001060080C6D20080C0D20280BCD2D580BAD205C9
:1001160080B47F201200612002077401B5180040E8
:10012600F1120026FF12006102009AD208D2068060
:1001360095120026FB120026FA120026F94A4B7089
:100146000679437A037BFF20022EE518602A7E009B
:100156008E827583001205B760060EEE651970F083
:10016600C2D5EBC0E0EAC0E0E9C0E0EE1202B9D0C9
:10017600E0F9D0E0FAD0E0FB120478FF60AAEBC009
:10018600E0EAC0E0E9C0E0120061D0E02401F9D065
:10019600E03400FAD0E0FBE5190460DCD519D9801B
:1001A600877BFF7A0279B5D202809C79108002792A
:1001B60008C206C2088008D2D5790A8004790AC224
:1001C600D5E519047002F519E4FAFDFEFF120026C2
:1001D600FC7B08200113120026FD7B1030000A125A
:1001E6000026FE120026FF7B20EC3382D592D550E6
:1001F60013C3E43000069FFFE49EFEE42001039D46
:10020600FDE49CFCE4CBF8C201EC700CCFCECDCC67
:10021600E824F8F870F38017C3EF33FFEE33FEEDF2
:1002260033FDEC33FCEB33FB994002FB0FD8E9EBD3
:10023600300105F8D0E0C448B201C0E00AEC4D4EEA
:100246004F78207B0070C2EAB5190040BCC0E012AE
:1002560002BBD0F0D0E0200104C4C0E0C4B201C0AB
:10026600F012004AD0F0D5F0EB02009A1206060111
:10027600375301B15801084C01044201B54F01BD85
:0F0286004401BD49011D4301C35501A74601A70E
:100295004501A747036350010C2D01102E01332B97
:1002A500011423013120034C2A00CC480000012B06
:1002B5003F3F3F00790AA2D5200314300509B91044
:1002C500020404B9080104A2D52006025001042045
:1002D50002689202B518005034C0E07F203003193F
:1002E5007F30A20272067205500F120312C202C2BB
:1002F50006C205C2087F30800F300503E9C0E01251
:100305000061300503D0E0F9D0E0B518CC30051711
:100315007F30B9100C1200617F583004077F788058
:1003250003B908031200613002057F2D0200617FC9
:10033500202008F87F2B2006F322920280CF286E1A
:10034500756C6C2900D2011200263001F8C20178C3
:100355001830D50108F60200CC2D5043495812003B
:10036500262403B405004001E490035E9312005275
:0D037500743A120052D2037518040201B14F
:100C61008B088A09890A8B0E8A0F8910AB08050A3D
:100C7100E50AAA097002050914F912047870ED74E5
:100C8100FF250AF50A74FF3509F509AB0B050DE5DA
:100C91000DAA0C7002050C14F9120478FFAB0805BB
:100CA1000AE50AAA097002050914F9EF1205E470B0
:080CB100DAAB0EAA0FA9102214
:1004A200E709F60870FA8046E709F20870FA803E1A
:1004B20088828C83E709F0A370FA807EE309F6084C
:1004C20070FA8076E309F20870FA806E88828C8373
:1004D200E309F0A370FA806289828A83E0A3F608B6
:1004E20070FA805689828A83E0A3F20870FA804A01
:1004F20080D280FA80C680D4806580F280318010FC
:1005020080A680EA809A80A880DA80E280CA803160
:1005120089828A83ECFAE493A3C8C582C8CCC583D6
:10052200CCF0A3C8C582C8CCC583CC70E9800D8944
:10053200828A83E493A3F60870F9ECFAA9F0EDFB42
:100542002289828A83ECFAE0A3C8C582C8CCC5831B
:10055200CCF0A3C8C582C8CCC583CC70EA80DD8943
:10056200828A83E493A3F20870F980CE88F0ED24A6
:1005720002B4040050C4F582EB2402B4040050BA61
:0905820023234582239004F27347
:100BDF008B148A158916AB17AA18A91912047860F5
:100BEF0063AB14AA15A916120478605F85171A85CE
:100BFF00181B85191C8B1D8A1E891FAB1AAA1BA9CE
:100C0F001C120478FF6023AB1DAA1EA91F120478C3
:100C1F006F701704251CF51CE4351BF51B7401259B
:100C2F001FF51FE4351EF51E80D1AB1AAA1BA91C98
:100C3F001204787002800D74012516F516E435152F
:100C4F00F515809DAB14AA15A916227B007A0079A1
:020C5F00002271
:10058B00EF4E6012EF60010EEDBB010B89828A8387
:10059B00F0A3DFFCDEFA2289F05007F709DFFCA994
:0C05AB00F022BBFEFCF309DFFCA9F022EB
:100ADB0002062CE493A3F8E493A34003F68001F2FF
:100AEB0008DFF48029E493A3F85407240CC8C3331C
:100AFB00C4540F4420C8834004F456800146F6DFEB
:100B0B00E4800B0102040810204080900CEDE47E81
:100B1B00019360BCA3FF543F30E509541FFEE493DF
:100B2B00A360010ECF54C025E060A840B8E493A3A6
:100B3B00FAE493A3F8E493A3C8C582C8CAC583CAD1
:100B4B00F0A3C8C582C8CAC583CADFE9DEE780BE89
:010D1E0000D4
:1005B700BB010CE58229F582E5833AF583E02250F9
:1005C70006E92582F8E622BBFE06E92582F8E22243
:0D05D700E58229F582E5833AF583E493225D
:1005E400BB010689828A83F0225002F722BBFE01F6
:0205F400F322F0
:1005F600FAE6FB0808E6F925F0F618E6CA3AF62206
:10060600D083D082F8E4937012740193700DA3A383
:1006160093F8740193F5828883E473740293686097
:06062600EFA3A3A380DF97
:100D5000EFB40A07740D120D5B740A309811A8994C
:100D6000B8130CC2983098FDA899C298B811F63003
:070D700099FDC299F59922DB
:00000001FF
