:1003D900494C6F76654D43552E2020202020202042
:1003E9000020202020202074616F62616F2E636FCE
:1003F9006D0041540D0A004F4B0D0A0041542B4327
:1004090050494E3F0D0A0052454144590041542B71
:10041900435245473F0D0A00435245473A20302C85
:100429003100435245473A20302C350041542B5175
:10043900474E5353433F0D0A002B51474E535343E5
:100449003A20310041542B51474E5353433D310D0E
:100459000A0041542B51474E535352443D224E4DAD
:1004690045412F524D43220D0A002C002020202007
:100479002020202020202020202020200047505309
:10048900204441544120697320202020200020204D
:0E0499006E6F742075736566756C6C202000A4
:0608690004320000000053
:10002600E4F5101207FC1207BA1208147F801208B2
:100036002C7BFF7A0379D912076F7FC012082C7BBD
:10004600FF7A0379EA12076F1206C2751DFF751E45
:1000560004751F00E47523B875220BF521F520758C
:10006600240A7BFF7A0379FB1204BBEF64014E601E
:10007600031207161207BA751DFF751E04751F10A9
:10008600E47523E8752203F521F52075240A7BFF24
:100096007A0479051204BBEF64014E600312071659
:1000A6001207BA751DFF751E04751F211204A7EFEE
:1000B60064014E60181207BA751DFF751E04751F80
:1000C6002B1204A7EF64014E6003120716751DFF7D
:1000D600751E04751F42E47523E8752203F521F5A4
:1000E600207524017BFF7A0479351204BBEF640185
:1000F6004E6028751DFF751E04751F00E475236488
:10010600F522F521F52075240A7BFF7A04794D1234
:1001160004BBEF64014E6003120716751DFF751EC2
:1001260004751F00E47523D0752207F521F52075A7
:10013600240A7BFF7A04795B1204BBEF64014E60EC
:10014600031207169000787401F07E007F787D0018
:10015600FB7A007900120299AF397E0078007C00A4
:100166007D017B007A00793A1202491202C5120615
:030176005080A80E
:10071600751DFF751E04751F00E4752364F522F52B
:1007260021F52075240A7BFF7A0379FB1204BBEFBF
:1007360064014E700312087B7FC87E001207BE80DC
:01074600CFE3
:03087B0002000078
:1004A700E47523E8752203F521F52075240A7BFFFF
:0404B7007A04791634
:0604BB008B1A8A1B891C4C
:1004C100120856E4F525E525C39524506DAB1AAA0B
:1004D1001BA91C120795E4F535F534F533F532AF58
:1004E10023AE22AD21AC20AB35AA34A933A832C347
:1004F10012028850387F647E001207BEE5352464FD
:10050100F535E43534F534E43533F533E43532F596
:1005110032851D29851E2A851F2B7B007A00793A99
:100521001205CEE94A4B60B77E007F0122E4F53522
:10053100F534F533F5320525808C120856E4FEFFBB
:010541002297
:1002C500E4F517900078E070030203D8E4F0F51721
:1002D500E51770237529FF752A04752B737B017A41
:1002E5000079001205CE8B118A128913E94A4B60F9
:1002F500030203CA0203C774012513F513E435127B
:10030500F5127529FF752A04752B73AB11FAA9131C
:100315001205CE8B148A158916E94A4B7003020320
:01032500C710
:10032600E51724FD602014603014604014605024EA
:10033600047066C3E5169513FFE5159512FE781849
:100346007C007D00804AC3E5169513FFE5159512DE
:10035600FE787A7C007D018037C3E5169513FFE5AC
:10036600159512FE78857C007D018024C3E51695DF
:1003760013FFE5159512FE78877C007D018011C379
:10038600E5169513FFE5159512FE78937C007D0121
:10039600AB11AA12A91312024985141185151285EB
:1003A60016139000797401F0E518B4410890009591
:0F03B6007401F0800FE518B4560AE4900095F03A
:1003C50080031207160517D3E5176480948650033A
:0303D5000202D54C
:0103D8002202
:10065000900079E0606BE4F0900095E07F80604767
:1006600012082C7B017A00797A12076F7F2012081A
:10067000417B017A00798512076F7BFF7A047975D7
:1006800012076F7FC012082C7B017A00798712074E
:100690006F7F201208417B017A00799312076F7BEC
:1006A000FF7A047975801712082C7BFF7A0479860B
:1006B00012076F7FC012082C7BFF7A04799712070C
:0206C0006F22A7
:1006C200E4900078F0A3F0900095F0FE7F78FD7B37
:1006D200017A0079001202997E007F0B7D007B0176
:1006E2007A00797A1202997E007F027D007B017A7C
:1006F2000079851202997E007F0C7D007B017A00D1
:1007020079871202997E007F027D007B017A00794F
:0407120093020299B3
:0407BA007F0A7E0034
:1007BE00E4FDFCC3ED9FEC9E5015E4FBFA0BBB0071
:0F07CE00010AEB647B4A70F50DBD00010C80E45D
:0107DD0022F9
:03086F000139004C
:1007FC00759850D29CE4F587758920758DFD758BA5
:08080C00FDD28ED2AFD2AC2266
:080873008F993099FDC2992212
:100795008B268A278928AB26AA27A92812026F60EB
:1007A500130528E5287002052714F912026FFF12B8
:0507B500087380E22240
:1007DE008B368A3789388B298A2A892B7B007A00B7
:0E07EE00793A1205CEE94A4B6002D322C322AB
:100856007E007F787D007B007A00793A120299E467
:03086600F539223F
:030023000207478A
:10074700C0E0C0D075D008C2AC309815C298743AD2
:100757002539F8A6990539E539C3947840037539E1
:0807670000D2ACD0D0D0E0328A
:10000300E4FDFCC3ED9FEC9E5015E4FBFA0BBB0033
:0F001300010AEB647B4A70F50DBD00010C80E41F
:0100220022BB
:10082C00A907C2A57F017E00120003D2A7898012FE
:05083C000003C2A72229
:10084100A907D2A57F017E001200038980D2A712D9
:050851000003C2A72214
:10076F008B118A128913AB11AA12A91312026FFFF0
:10077F00D39400401012084174012513F513E4358A
:06078F0012F51280E122C8
:10081400C2A7C2A67F3812082C7F0C12082C7F06B0
:0808240012082C7F0102082CD0
:03000000020542B4
:0C054200787FE4F6D8FD7581B1020589D0
:10017900E709F608DFFA8046E709F208DFFA803E68
:1001890088828C83E709F0A3DFFA8032E309F60855
:10019900DFFA8078E309F208DFFA807088828C83BD
:1001A900E309F0A3DFFA806489828A83E0A3F60871
:1001B900DFFA805889828A83E0A3F208DFFA804C4B
:1001C90080D280FA80C680D4806980F28033801022
:1001D90080A680EA809A80A880DA80E280CA80338B
:1001E90089828A83ECFAE493A3C8C582C8CCC58303
:1001F900CCF0A3C8C582C8CCC583CCDFE9DEE780D3
:100209000D89828A83E493A3F608DFF9ECFAA9F051
:10021900EDFB2289828A83ECFAE0A3C8C582C8CCA7
:10022900C583CCF0A3C8C582C8CCC583CCDFEADEC0
:10023900E880DB89828A83E493A3F208DFF980CC22
:1002490088F0EF60010E4E60C388F0ED2402B4041B
:100259000050B9F582EB2402B4040050AF232345C2
:0602690082239001C9731D
:10026F00BB010689828A83E0225002E722BBFE028D
:09027F00E32289828A83E49322C0
:10028800EB9FF5F0EA9E42F0E99D42F0E89C45F0CC
:010298002243
:1005CE008B268A278928AB29AA2AA92B12026F60AB
:1005DE0063AB26AA27A92812026F605F85292C8596
:1005EE002A2D852B2E8B2F8A308931AB2CAA2DA943
:1005FE002E12026FFF6023AB2FAA30A93112026FA9
:10060E006F701704252EF52EE4352DF52D7401256A
:10061E0031F531E43530F53080D1AB2CAA2DA92E31
:10062E0012026F7002800D74012528F528E435271B
:10063E00F527809DAB26AA27A928227B007A007970
:02064E00002288
:10029900EF4E6012EF60010EEDBB010B89828A837C
:1002A900F0A3DFFCDEFA2289F05007F709DFFCA989
:0C02B900F022BBFEFCF309DFFCA9F022E0
:10054E00020026E493A3F8E493A34003F68001F29D
:10055E0008DFF48029E493A3F85407240CC8C333AE
:10056E00C4540F4420C8834004F456800146F6DF7D
:10057E00E4800B0102040810204080900869E47E9C
:10058E00019360BCA3FF543F30E509541FFEE49372
:10059E00A360010ECF54C025E060A840B8E493A339
:1005AE00FAE493A3F8E493A3C8C582C8CAC583CA64
:1005BE00F0A3C8C582C8CAC583CADFE9DEE780BE1C
:010872000085
:00000001FF
