:10048000494C6F76654D43552E202020202020209A
:100490000020202020202074616F62616F2E636F26
:1004A0006D0041540D0A004F4B0D0A0041542B437F
:1004B00050494E3F0D0A0052454144590041542BCA
:1004C000435245473F0D0A00435245473A20302CDE
:1004D0003100435245473A20302C350041542B43DC
:1004E0004D47463D310D0A0041542B435343533D84
:1004F0002247534D220D0A0041542B434E4D493D96
:10050000322C320D0A004F4E004F464600434D54E8
:08051000000A000D004F4B0032
:08079600042100000000C10273
:100026001207291207417F801207597BFF7A04794C
:100036008012069C7FC01207597BFF7A04799112C1
:10004600069C750BFF750C04750DA7E47511B87544
:10005600100BF50FF50E75120A7BFF7A0479A212C2
:1000660003F6EF64014E600312066B1206E7750B8A
:10007600FF750C04750DB7E47511E8751003F50FDF
:10008600F50E75120A7BFF7A0479AC1203F6EF645B
:10009600014E600312066B1206E7750BFF750C0422
:1000A600750DC81203E2EF64014E60181206E7757B
:1000B6000BFF750C04750DD21203E2EF64014E605E
:1000C6000312066B750BFF750C04750DA7E475110D
:1000D600E8751003F50FF50E75120A7BFF7A0479A1
:1000E600DC1203F6EF64014E600312066B1206E79C
:1000F600750BFF750C04750DA7E47511E8751003F3
:10010600F50FF50E75120A7BFF7A0479E81203F6ED
:10011600EF64014E600312066B1206E7750BFF755E
:100126000C04750DA7E47511B875100BF50FF50ED7
:1001360075120A7BFF7A0479F81203F6EF64014E12
:10014600600312066B1206E7300140C201E4F52493
:10015600F523F522F521E47FE87E03FDFCAB24AA16
:1001660023A922A821C3120303501E7F647E001216
:1001760006EBE5242464F524E43523F523E435224F
:10018600F522E43521F52180CDD2003000BA1203E4
:10019600407517FF7518057519067B017A007900F9
:1001A6001205A4E94A4B6015C2A07F011207597FC8
:1001B600801207597B017A00790012069C7517FF99
:1001C6007518057519097B017A0079001205A4E9ED
:1001D6004A4B6015D2A07F011207597F801207593A
:0E01E6007B017A00790012069CC20002014ED5
:10034000750800750900750A00750B00750C0075BD
:100350000D00750E00750F007510007E007F647D26
:10036000007B017A0079001203147517FF751805D8
:1003700075190D7B017A0079641205A48B088A092E
:10038000890AE94A4B60587517FF751805751911E8
:100390001205A48B0B8A0C890DE94A4B604174014C
:1003A000250DF50DE4350CF50C7517FF7518057561
:1003B0001913FAA90D1205A48B0E8A0F8910E94AA8
:1003C0004B601CAC02AD01C3ED950DFFEC950CFE2E
:1003D00078007C007D01AB0BAA0CA90D1202C402AF
:0203E000078391
:10066B00750BFF750C05750D15E4751164F510F51B
:10067B000FF50E75120A7BFF7A0479A21203F6EFBF
:10068B0064014E70031207AE7FC87E001206EB802A
:01069B00CF8F
:0307AE0002000046
:1003E200E47511E8751003F50FF50E75120A7BFF1F
:0403F2007A0479BD53
:0603F6008B088A09890A48
:1003FC00120783E4F513E513C395125070AB08AAEA
:10040C0009A90A1206C2E4F524F523F522F521AF59
:10041C0011AE10AD0FAC0EAB24AA23A922A821C398
:10042C00120303503B7F647E001206EBE524246428
:10043C00F524E43523F523E43522F522E43521F5C2
:10044C0021850B17850C18850D197B017A007964B1
:10045C001205A4E94A4B60B71207837E007F012284
:10046C00E4F524F523F522F5210513808912078381
:03047C00E4FEFF9C
:01047F00225A
:0406E7007F0A7E0008
:1006EB00E4FDFCC3ED9FEC9E5015E4FBFA0BBB0045
:0F06FB00010AEB647B4A70F50DBD00010C80E431
:01070A0022CC
:07079E00012800C100C101A8
:10072900759850D29CE4F587758920758DFD758B78
:08073900FDD28ED2AFD2AC223A
:0807A6008F993099FDC29922E0
:1006C2008B148A158916AB14AA15A9161202EA60B0
:1006D200130516E5167002051514F91202EAFF1247
:0506E20007A680E222E2
:10070B008B258A2689278B178A1889197B017A00F2
:0E071B0079641205A4E94A4B6002D322C3227E
:100783007E007F647D007B017A007964120314E4A8
:03079300F5282224
:03002300020626AC
:10062600C0E0C083C082C0D0C2AC30982DC29874DE
:10063600642528F582E43400F583E599F074642591
:1006460028F582E43400F583E0B42B02D2010528B4
:10065600E528C394644003752800D2ACD0D0D0827C
:05066600D083D0E0325A
:10000300E4FDFCC3ED9FEC9E5015E4FBFA0BBB0033
:0F001300010AEB647B4A70F50DBD00010C80E41F
:0100220022BB
:10075900A907C2A57F017E00120003D2A7898012D2
:050769000003C2A722FD
:10076E00A907D2A57F017E001200038980D2A712AD
:05077E000003C2A722E8
:10069C008B088A09890AAB08AA09A90A1202EAFF7F
:1006AC00D39400401012076E7401250AF50AE43544
:0606BC0009F50980E122AE
:10074100C2A7C2A67F381207597F0C1207597F062C
:080751001207597F010207594C
:03000000020518DE
:0C051800787FE4F6D8FD75812802055FAD
:1001F400E709F608DFFA8046E709F208DFFA803EED
:1002040088828C83E709F0A3DFFA8032E309F608D9
:10021400DFFA8078E309F208DFFA807088828C8341
:10022400E309F0A3DFFA806489828A83E0A3F608F5
:10023400DFFA805889828A83E0A3F208DFFA804CCF
:1002440080D280FA80C680D4806980F280338010A6
:1002540080A680EA809A80A880DA80E280CA80330F
:1002640089828A83ECFAE493A3C8C582C8CCC58387
:10027400CCF0A3C8C582C8CCC583CCDFE9DEE78057
:100284000D89828A83E493A3F608DFF9ECFAA9F0D6
:10029400EDFB2289828A83ECFAE0A3C8C582C8CC2C
:1002A400C583CCF0A3C8C582C8CCC583CCDFEADE45
:1002B400E880DB89828A83E493A3F208DFF980CCA7
:1002C40088F0EF60010E4E60C388F0ED2402B404A0
:1002D4000050B9F582EB2402B4040050AF23234547
:0602E40082239002447326
:1002EA00BB010689828A83E0225002E722BBFE0212
:0902FA00E32289828A83E4932245
:10030300EB9FF5F0EA9E42F0E99D42F0E89C45F050
:0103130022C7
:1005A4008B148A158916AB17AA18A9191202EA60C6
:1005B40063AB14AA15A9161202EA605F85171A859F
:1005C400181B85191C8B1D8A1E891FAB1AAA1BA90F
:1005D4001C1202EAFF6023AB1DAA1EA91F1202EA25
:1005E4006F701704251CF51CE4351BF51B740125DD
:1005F4001FF51FE4351EF51E80D1AB1AAA1BA91CDA
:100604001202EA7002800D74012516F516E4351500
:10061400F515809DAB14AA15A916227B007A0079E2
:020624000022B2
:10031400EF4E6012EF60010EEDBB010B89828A8300
:10032400F0A3DFFCDEFA2289F05007F709DFFCA90D
:0C033400F022BBFEFCF309DFFCA9F02264
:10052400020026E493A3F8E493A34003F68001F2C7
:1005340008DFF48029E493A3F85407240CC8C333D8
:10054400C4540F4420C8834004F456800146F6DFA7
:10055400E4800B0102040810204080900796E47E9A
:10056400019360BCA3FF543F30E509541FFEE4939C
:10057400A360010ECF54C025E060A840B8E493A363
:10058400FAE493A3F8E493A3C8C582C8CAC583CA8E
:10059400F0A3C8C582C8CAC583CADFE9DEE780BE46
:0107A5000053
:00000001FF
