:10062C00494C6F76654D43552E20202020202020EC
:10063C000020202020202074616F62616F2E636F78
:10064C006D0041540D0A004F4B0D0A0041542B43D1
:10065C0050494E3F0D0A0052454144590041542B1C
:10066C00435245473F0D0A00435245473A20302C30
:10067C003100435245473A20302C350041542B5120
:10068C00474E5353433F0D0A002B51474E53534390
:10069C003A20310041542B51474E5353433D310DB9
:1006AC000A0041542B5149434C4F53450D0A000D40
:1006BC000A0041542B514944454143540D0A004111
:1006CC00542B51474E535352443D224E4D45412FCE
:1006DC00524D43220D0A0041542B51494F50454E67
:1006EC003D22544350222C2200222C2200220D0A9F
:1006FC0000434F4E4E454354204F4B0041542B5119
:10070C004953454E440D0A003E002573204E2C25BE
:10071C007320450D0A494C6F76654D43552E746117
:10072C006F62616F2E636F6D0D0A0D0A002C002035
:10073C0020202020202020202020202020202000CD
:10074C0047505320444154412069732020202020DD
:10075C000020206E6F742075736566756C6C20209C
:10076C00003130332E34342E3134352E32343500C2
:10077C003130333830000000000000000000000071
:10078C00000000000000000000000000000000005D
:10079C00000000000000000000000000000000004D
:1007AC00000000000000000000000000000000003D
:1007BC00000000000000000000000000000000002D
:1007CC00000000000000000000000000000000001D
:0A07DC000000000000000000000013
:0910780004100000000001140046
:1007E600E4F52212100B120FC91210237F8012108B
:1007F6003B7BFF7A06792C120F7E7FC012103B7B63
:10080600FF7A06793D120F7E120EAA752FFF7530FC
:1008160006753153E47535B875340BF533F5327515
:10082600360A7BFF7A06794E120C47EF64014E605A
:1008360003120EFE120FC9752FFF75300675316350
:10084600E47535E8753403F533F53275360A7BFF02
:100856007A067958120C47EF64014E6003120EFEB9
:10086600120FC9752FFF753006753174120C33EFF0
:1008760064014E6018120FC9752FFF753006753169
:100886007E120C33EF64014E6003120EFE752FFFCD
:10089600753006753195E47535E8753403F533F52D
:1008A600327536017BFF7A067988120C47EF6401B0
:1008B6004E6028752FFF753006753153E475356423
:1008C600F534F533F53275360A7BFF7A0679A012D0
:1008D6000C47EF64014E6003120EFE752FFF753054
:1008E600067531BBE4753588753413F533F5327505
:1008F600360A7BFF7A0679AE120C47EF64014E602A
:1009060003120EFE7F647E00120FCD752FFF753029
:10091600067531BBE4753588753413F533F53275D4
:10092600360A7BFF7A0679BE120C47EF64014E60E9
:1009360003120EFE752FFF753006753153E47535BB
:10094600D0753407F533F53275360A7BFF7A0679AA
:10095600CB120C47EF64014E6003120EFE90007836
:100966007401F07E007F787D00FB7A007900120525
:100976008BAF187E0078007C007D017B007A0079C1
:1009860044120452120999120DDC7FB87E0B120F25
:03099600CD80A170
:100AF00078977C007D017BFF7A0779827E007F6496
:100B00001204527E007F647D007B017A0079971287
:100B1000058BE5146003020BA375140178977C0024
:100B20007D017BFF7A0679E312056E7526FF752736
:100B30000775286D7B017A007997120E527526FF92
:100B40007527067528F57B017A007997120E527584
:100B500026FF75270775287C7B017A007997120E8E
:100B6000527526FF7527067528F97B017A0079975B
:100B7000120E52752FFF7530067531FDE475351074
:100B8000753427F533F5327536057B017A00799790
:100B9000120C47EF64014E6003120EFE7F647E006C
:100BA000120FCD752FFF753007753114E47535B808
:100BB00075340BF533F5327536057BFF7A07790806
:100BC000120C47EF64014E6003120EFE120FC97E35
:100BD000007F647D007B017A00799712058B752672
:100BE000FF752707752816752901752A00752B7A58
:100BF000752C01752D00752E877B017A007997126F
:100C00000082752F01753000753197E47535B87520
:100C1000340BF533F5327536017B017A0079971282
:100C20000C47EF64014E6003120EFE120FC97F1ACB
:030C30000210852A
:100EFE00752FFF753006753153E4753564F534F58D
:100F0E0033F53275360A7BFF7A06794E120C47EFAF
:100F1E0064014E700312108D7FC87E00120FCD80BB
:010F2E00CFF3
:03108D000200005E
:100C3300E47535E8753403F533F53275360A7BFF11
:040C43007A0679694B
:060C47008B2C8A2D892E82
:100C4D00121065E4F537E537C39536506DAB2CAA18
:100C5D002DA92E120FA4E4F513F512F511F510AF11
:100C6D0035AE34AD33AC32AB13AA12A911A810C3F3
:100C7D0012049150387F647E00120FCDE513246469
:100C8D00F513E43512F512E43511F511E43510F5CF
:100C9D0010852F3B85303C85313D7B007A007944B2
:100CAD00120D5AE94A4B60B77E007F0122E4F5131D
:100CBD00F512F511F5100537808C121065E4FEFF65
:010CCD002204
:10099900E4F529900078E07003020AEFE4F0F52904
:1009A900E5297023753BFF753C07753D397B017A55
:1009B900007900120D5A8B238A248925E94A4B6054
:1009C90003020AE1020ADE74012525F525E435242E
:1009D900F524753BFF753C07753D39AB23FAA9250D
:1009E900120D5A8B268A278928E94A4B7003020A75
:0109F900DE1F
:1009FA00E52924FD6027146046146065147003021B
:100A0A000A8D24046003020AB6C3E5289525FFE58A
:100A1A00279524FE782A7C007D00020AAD7E007F9D
:100A2A000B7D007B017A00797A12058BC3E5289544
:100A3A0025FFE5279524FE787A7C007D0180647E77
:100A4A00007F027D007B017A00798512058BC3E560
:100A5A00289525FFE5279524FE78857C007D018071
:100A6A00427E007F0C7D007B017A00798712058B1C
:100A7A00C3E5289525FFE5279524FE78877C007D28
:100A8A000180207E007F037D007B017A007993122A
:100A9A00058BC3E5289525FFE5279524FE78937CE9
:100AAA00007D01AB23AA24A9251204528526238599
:100ABA0027248528259000797401F0E52AB4410895
:100ACA009000967401F0800FE52AB4560AE490006B
:020ADA0096F094
:100ADC008003120EFE0529D3E52964809486500309
:030AEC000209A953
:010AEF0022E4
:100DDC00900079E0606FE4F0900096E07F80604BCB
:100DEC0012103B7B017A00797A120F7E7F20121051
:100DFC00507B017A007985120F7E7BFF7A07793B55
:100E0C00120F7E7FC012103B7B017A007987120F84
:100E1C007E7F201210507B017A007993120F7E7B1B
:100E2C00FF7A07793B120F7E020AF012103B7BFF10
:100E3C007A07794C120F7E7FC012103B7BFF7A072A
:060E4C00795D120F7E2209
:100EAA00E4900078F0A3F0900096F0FE7F78FD7B46
:100EBA00017A00790012058B7E007F0B7D007B0191
:100ECA007A00797A12058B7E007F027D007B017A97
:100EDA0000798512058B7E007F0C7D007B017A00EC
:100EEA00798712058B7E007F037D007B017A00796A
:040EFA009302058BCF
:040FC9007F0A7E001D
:100FCD00E4FDFCC3ED9FEC9E5015E4FBFA0BBB005A
:0F0FDD00010AEB647B4A70F50DBD00010C80E446
:010FEC0022E2
:0310810001180053
:10100B00759850D29CE4F587758920758DFD758B8D
:08101B00FDD28ED2AFD2AC224F
:081085008F993099FDC29922F8
:100FA4008B388A39893AAB38AA39A93A120478605D
:100FB40013053AE53A7002053914F9120478FF1260
:050FC400108580E2220F
:100FED008B158A1689178B3B8A3C893D7B007A00CD
:0E0FFD007944120D5AE94A4B6002D322C322F6
:101065007E007F787D007B007A00794412058BE451
:03107500F5182249
:03002300020F2F9A
:100F2F00C0E0C0D075D008C2AC309815C2987444D8
:100F3F002518F8A6990518E518C394784003751875
:080F4F0000D2ACD0D0D0E0329A
:10000300E4FDFCC3ED9FEC9E5015E4FBFA0BBB0033
:0F001300010AEB647B4A70F50DBD00010C80E41F
:0100220022BB
:10103B00A907C2A57F017E00120003D2A7898012E7
:05104B000003C2A72212
:10105000A907D2A57F017E001200038980D2A712C2
:051060000003C2A722FD
:100F7E008B238A248925AB23AA24A925120478FF62
:100F8E00D39400401012105074012525F525E43538
:060F9E0024F52480E1228D
:10102300C2A7C2A67F3812103B7F0C12103B7F066B
:0810330012103B7F0102103B8B
:03000000020CCE21
:0C0CCE00787FE4F6D8FD7581BB020D159F
:10038200E709F608DFFA8046E709F208DFFA803E5D
:1003920088828C83E709F0A3DFFA8032E309F6084A
:1003A200DFFA8078E309F208DFFA807088828C83B2
:1003B200E309F0A3DFFA806489828A83E0A3F60866
:1003C200DFFA805889828A83E0A3F208DFFA804C40
:1003D20080D280FA80C680D4806980F28033801017
:1003E20080A680EA809A80A880DA80E280CA803380
:1003F20089828A83ECFAE493A3C8C582C8CCC583F8
:10040200CCF0A3C8C582C8CCC583CCDFE9DEE780C7
:100412000D89828A83E493A3F608DFF9ECFAA9F046
:10042200EDFB2289828A83ECFAE0A3C8C582C8CC9C
:10043200C583CCF0A3C8C582C8CCC583CCDFEADEB5
:10044200E880DB89828A83E493A3F208DFF980CC17
:1004520088F0EF60010E4E60C388F0ED2402B40410
:100462000050B9F582EB2402B4040050AF232345B7
:0604720082239003D27307
:10047800BB010689828A83E0225002E722BBFE0282
:09048800E32289828A83E49322B5
:10049100EB9FF5F0EA9E42F0E99D42F0E89C45F0C1
:0104A1002238
:10002600E5322426F8E605322278233007027826C0
:10003600E475F0011205F60204782000EB7F2ED25B
:10004600008018EF540F2490D43440D4FF30040BB2
:10005600EF24BFB41A0050032461FFE53360021594
:10006600330536E5367002053530070D7823E4751D
:10007600F0011205F6EF0205E4020F577403D207EA
:100086008003E4C207F5328B238A248925E4F533FD
:10009600F535F536E53360077F2012006180F5758A
:1000A60034FFC201C200C202C203C205C206C208B0
:1000B60012002FFF700D3007057F00120072AF3659
:1000C600AE3522B4255FC2D5C20412002FFF24D05C
:1000D600B40A00501A75F00A783330D50508B6FF11
:1000E6000106C6A426F620D5047002D20380D924C0
:1000F600CFB41A00EF5004C2E5D204020272D20154
:1001060080C6D20080C0D20280BCD2D580BAD205C9
:1001160080B47F201200612002077401B5330040CD
:10012600F1120026FF12006102009AD208D2068060
:1001360095120026FB120026FA120026F94A4B7089
:100146000679437A037BFF20022EE533602A7E0080
:100156008E827583001205B760060EEE653470F068
:10016600C2D5EBC0E0EAC0E0E9C0E0EE1202B9D0C9
:10017600E0F9D0E0FAD0E0FB120478FF60AAEBC009
:10018600E0EAC0E0E9C0E0120061D0E02401F9D065
:10019600E03400FAD0E0FBE5340460DCD534D980E5
:1001A600877BFF7A0279B5D202809C79108002792A
:1001B60008C206C2088008D2D5790A8004790AC224
:1001C600D5E534047002F534E4FAFDFEFF1200268C
:1001D600FC7B08200113120026FD7B1030000A125A
:1001E6000026FE120026FF7B20EC3382D592D550E6
:1001F60013C3E43000069FFFE49EFEE42001039D46
:10020600FDE49CFCE4CBF8C201EC700CCFCECDCC67
:10021600E824F8F870F38017C3EF33FFEE33FEEDF2
:1002260033FDEC33FCEB33FB994002FB0FD8E9EBD3
:10023600300105F8D0E0C448B201C0E00AEC4D4EEA
:100246004F78207B0070C2EAB5340040BCC0E01293
:1002560002BBD0F0D0E0200104C4C0E0C4B201C0AB
:10026600F012004AD0F0D5F0EB02009A1206060111
:10027600375301B15801084C01044201B54F01BD85
:0F0286004401BD49011D4301C35501A74601A70E
:100295004501A747036350010C2D01102E01332B97
:1002A500011423013120034C2A00CC480000012B06
:1002B5003F3F3F00790AA2D5200314300509B91044
:1002C500020404B9080104A2D52006025001042045
:1002D50002689202B533005034C0E07F2030031924
:1002E5007F30A20272067205500F120312C202C2BB
:1002F50006C205C2087F30800F300503E9C0E01251
:100305000061300503D0E0F9D0E0B533CC300517F6
:100315007F30B9100C1200617F583004077F788058
:1003250003B908031200613002057F2D0200617FC9
:10033500202008F87F2B2006F322920280CF286E1A
:10034500756C6C2900D2011200263001F8C20178C3
:100355003330D50108F60200CC2D50434958120020
:10036500262403B405004001E490035E9312005275
:0D037500743A120052D2037533040201B134
:100E52008B238A2489258B298A2A892BAB23052572
:100E6200E525AA247002052414F912047870ED74A1
:100E7200FF2525F52574FF3524F524AB260528E545
:100E820028AA277002052714F9120478FFAB23055C
:100E920025E525AA247002052414F9EF1205E47051
:080EA200DAAB29AA2AA92B22D0
:1004A200E709F60870FA8046E709F20870FA803E1A
:1004B20088828C83E709F0A370FA807EE309F6084C
:1004C20070FA8076E309F20870FA806E88828C8373
:1004D200E309F0A370FA806289828A83E0A3F608B6
:1004E20070FA805689828A83E0A3F20870FA804A01
:1004F20080D280FA80C680D4806580F280318010FC
:1005020080A680EA809A80A880DA80E280CA803160
:1005120089828A83ECFAE493A3C8C582C8CCC583D6
:10052200CCF0A3C8C582C8CCC583CC70E9800D8944
:10053200828A83E493A3F60870F9ECFAA9F0EDFB42
:100542002289828A83ECFAE0A3C8C582C8CCC5831B
:10055200CCF0A3C8C582C8CCC583CC70EA80DD8943
:10056200828A83E493A3F20870F980CE88F0ED24A6
:1005720002B4040050C4F582EB2402B4040050BA61
:0905820023234582239004F27347
:100D5A008B388A39893AAB3BAA3CA93D12047860A0
:100D6A0063AB38AA39A93A120478605F853B3E859D
:100D7A003C3F853D408B418A428943AB3EAA3FA90D
:100D8A0040120478FF6023AB41AA42A943120478B7
:100D9A006F7017042540F540E4353FF53F7401258F
:100DAA0043F543E43542F54280D1AB3EAA3FA94020
:100DBA001204787002800D7401253AF53AE4353947
:100DCA00F539809DAB38AA39A93A227B007A007995
:020DDA000022F5
:10058B00EF4E6012EF60010EEDBB010B89828A8387
:10059B00F0A3DFFCDEFA2289F05007F709DFFCA994
:0C05AB00F022BBFEFCF309DFFCA9F022EB
:100CDA000207E6E493A3F8E493A34003F68001F243
:100CEA0008DFF48029E493A3F85407240CC8C3331B
:100CFA00C4540F4420C8834004F456800146F6DFEA
:100D0A00E4800B0102040810204080901078E47EF1
:100D1A00019360BCA3FF543F30E509541FFEE493DE
:100D2A00A360010ECF54C025E060A840B8E493A3A5
:100D3A00FAE493A3F8E493A3C8C582C8CAC583CAD0
:100D4A00F0A3C8C582C8CAC583CADFE9DEE780BE88
:01108400006B
:1005B700BB010CE58229F582E5833AF583E02250F9
:1005C70006E92582F8E622BBFE06E92582F8E22243
:0D05D700E58229F582E5833AF583E493225D
:1005E400BB010689828A83F0225002F722BBFE01F6
:0205F400F322F0
:1005F600FAE6FB0808E6F925F0F618E6CA3AF62206
:10060600D083D082F8E4937012740193700DA3A383
:1006160093F8740193F5828883E473740293686097
:06062600EFA3A3A380DF97
:100F5700EFB40A07740D120F62740A309811A8993A
:100F6700B8130CC2983098FDA899C298B811F630FA
:070F770099FDC299F59922D2
:00000001FF
