:1005880041540D0A004F4B0D0A0041542B4350496A
:100598004E3F0D0A0052454144590041542B4352E5
:1005A80045473F0D0A00435245473A20302C310059
:1005B800435245473A20302C3500415444003B0D06
:1005C8000A00000000000000000000000000000019
:0605D8000000000000001D
:10068C000437000000000C3B3137337878787878E9
:04069C007878310039
:10030B001206A47522FF75230575248DE47528B894
:10031B0075270BF526F52575290A7BFF7A05798854
:10032B00120281EF64014E60031206121206687509
:10033B0022FF75230575249DE47528E8752703F5C1
:10034B0026F52575290A7BFF7A057992120281EF32
:10035B0064014E60031206121206687522FF7523A4
:10036B00057524AE12026DEF64014E60181206681B
:10037B007522FF7523057524B812026DEF64014ECB
:10038B0060031206121206687B007A00793B120496
:03039B002A80FEB7
:06042A008B088A09890A13
:10043000780B7C007D007BFF7A0579CA7E007F14F3
:100440001200F67E007F147D007B007A00790B128B
:10045000022F780B7C007D007BFF7A0579C21202A7
:1004600012850822850923850A247B007A00790BEE
:100470001205307522FF7523057524C67B007A00AE
:10048000790B1205307522FF75230575248DE475EF
:100490002810752727F526F52575290AFB7A007996
:0D04A0000B120281EF64014E600312061280
:0104AD00222C
:100612007522FF75230575248DE4752864F527F589
:1006220026F52575290A7BFF7A057988120281EF62
:1006320064014E70031206D77FC87E0012066C80DA
:01064200CFE8
:0306D7000200001E
:10026D00E47528E8752703F526F52575290A7BFF22
:04027D007A0579A3E2
:060281008B1F8A20892179
:100287001206BCE4F52AE52AC395295070AB1FAACC
:1002970020A921120643E4F53AF539F538F537AFC9
:1002A70028AE27AD26AC25AB3AAA39A938A837C35B
:1002B700120135503B7F647E0012066CE53A2464D8
:1002C700F53AE43539F539E43538F538E43537F5B5
:1002D7003785222E85232F8524307B017A007900EC
:1002E7001204AEE94A4B60B71206BC7E007F0122BA
:1002F700E4F53AF539F538F537052A80891206BC51
:03030700E4FEFF12
:01030A0022D0
:040668007F0A7E0087
:10066C00E4FDFCC3ED9FEC9E5015E4FBFA0BBB00C4
:0F067C00010AEB647B4A70F50DBD00010C80E4B0
:01068B00224C
:0306A000014A000C
:1006A400759850D29CE4F587758920758DFD758BFE
:0806B400FDD28ED2AFD2AC22C0
:0806CF008F993099FDC29922B8
:100643008B2B8A2C892DAB2BAA2CA92D12011C6074
:1006530013052DE52D7002052C14F912011CFF1250
:0506630006CF80E22239
:100003008B478A4889498B2E8A2F89307B017A0056
:0E00130079001204AEE94A4B6002D322C322E8
:1006BC007E007F647D007B017A00790012022FE4BA
:0306CC00F54A22CA
:030023000205DEF5
:1005DE00C0E0C083C082C0D0C2AC30981CC2987438
:1005EE0000254AF582E43400F583E599F0054AE5E5
:1005FE004AC394644003754A00D2ACD0D0D082D0A6
:04060E0083D0E03283
:0300000002039E5A
:0C039E00787FE4F6D8FD75814A0203E583
:10002600E709F608DFFA8046E709F208DFFA803EBC
:1000360088828C83E709F0A3DFFA8032E309F608A9
:10004600DFFA8078E309F208DFFA807088828C8311
:10005600E309F0A3DFFA806489828A83E0A3F608C5
:10006600DFFA805889828A83E0A3F208DFFA804C9F
:1000760080D280FA80C680D4806980F28033801076
:1000860080A680EA809A80A880DA80E280CA8033DF
:1000960089828A83ECFAE493A3C8C582C8CCC58357
:1000A600CCF0A3C8C582C8CCC583CCDFE9DEE78027
:1000B6000D89828A83E493A3F608DFF9ECFAA9F0A6
:1000C600EDFB2289828A83ECFAE0A3C8C582C8CCFC
:1000D600C583CCF0A3C8C582C8CCC583CCDFEADE15
:1000E600E880DB89828A83E493A3F208DFF980CC77
:1000F60088F0EF60010E4E60C388F0ED2402B40470
:100106000050B9F582EB2402B4040050AF23234516
:06011600822390007673C5
:10011C00BB010689828A83E0225002E722BBFE02E1
:09012C00E32289828A83E4932214
:10013500EB9FF5F0EA9E42F0E99D42F0E89C45F020
:010145002297
:100530008B1F8A2089218B258A268927AB1F0521BD
:10054000E521AA207002052014F912011C70ED7437
:10055000FF2521F52174FF3520F520AB220524E588
:1005600024AA237002052314F912011CFFAB1F05F6
:1005700021E521AA207002052014F9EF12025B7018
:08058000DAAB25AA26A9272207
:10014600E709F60870FA8046E709F20870FA803E79
:1001560088828C83E709F0A370FA807EE309F608AB
:1001660070FA8076E309F20870FA806E88828C83D2
:10017600E309F0A370FA806289828A83E0A3F60815
:1001860070FA805689828A83E0A3F20870FA804A60
:1001960080D280FA80C680D4806580F2803180105B
:1001A60080A680EA809A80A880DA80E280CA8031C0
:1001B60089828A83ECFAE493A3C8C582C8CCC58336
:1001C600CCF0A3C8C582C8CCC583CC70E9800D89A4
:1001D600828A83E493A3F60870F9ECFAA9F0EDFBA2
:1001E6002289828A83ECFAE0A3C8C582C8CCC5837B
:1001F600CCF0A3C8C582C8CCC583CC70EA80DD89A3
:10020600828A83E493A3F20870F980CE88F0ED2405
:1002160002B4040050C4F582EB2402B4040050BAC0
:0902260023234582239001967305
:1004AE008B2B8A2C892DAB2EAA2FA93012011C6002
:1004BE0063AB2BAA2CA92D12011C605F852E3185F2
:1004CE002F328530338B348A358936AB31AA32A937
:1004DE003312011CFF6023AB34AA35A93612011C5E
:1004EE006F7017042533F533E43532F53274012578
:1004FE0036F536E43535F53580D1AB31AA32A93330
:10050E0012011C7002800D7401252DF52DE4352C81
:10051E00F52C809DAB2BAA2CA92D227B007A00797D
:02052E000022A9
:10022F00EF4E6012EF60010EEDBB010B89828A83E6
:10023F00F0A3DFFCDEFA2289F05007F709DFFCA9F3
:0C024F00F022BBFEFCF309DFFCA9F0224A
:1003AA0002030BE493A3F8E493A34003F68001F25B
:1003BA0008DFF48029E493A3F85407240CC8C33354
:1003CA00C4540F4420C8834004F456800146F6DF23
:1003DA00E4800B010204081020408090068CE47E21
:1003EA00019360BCA3FF543F30E509541FFEE49318
:1003FA00A360010ECF54C025E060A840B8E493A3DF
:10040A00FAE493A3F8E493A3C8C582C8CAC583CA09
:10041A00F0A3C8C582C8CAC583CADFE9DEE780BEC1
:0106A3000056
:10025B00BB010689828A83F0225002F722BBFE0182
:02026B00F3227C
:00000001FF
