:1004EA0041540D0A004F4B0D0A0041542B43504909
:1004FA004E3F0D0A0052454144590041542B435284
:10050A0045473F0D0A00435245473A20302C3100F7
:10051A00435245473A20302C350041542B434D472E
:10052A00463D310D0A0041542B435343533D224764
:10053A00534D220D0A0041542B434D47533D22008F
:10054A00220D0A003E00415444003B0D0A000000FF
:10055A000000000000000000000000000000000091
:10056A000000000000000000000000000000000081
:06057A000000000000007B
:1007CF000408000000000C0C313733787878787803
:1007DF00787831001418494C6F76654D43552E7457
:0A07EF00616F62616F2E636F6D0091
:10026D001208467535FF7536047537EFE4753BB8E2
:10027D00753A0BF539F538753C0A7BFF7A0479EA46
:10028D00120460EF64014E600312079E120822757E
:10029D0035FF7536047537FFE4753BE8753A03F5A0
:1002AD0039F538753C0A7BFF7A0479F4120460EF56
:1002BD0064014E600312079E1208227535FF7536D4
:1002CD000575371012044CEF64014E6018120822A8
:1002DD007535FF75360575371A12044CEF64014EEE
:1002ED00600312079E7535FF7536047537EFE4759B
:1002FD003BE8753A03F539F538753C0A7BFF7A050D
:10030D007924120460EF64014E600312079E1208F7
:10031D00227535FF7536047537EFE4753BE8753A90
:10032D0003F539F538753C0A7BFF7A0579301204EF
:10033D0060EF64014E600312079E120822752F00B4
:10034D007530007531187B007A00790C12035E80D0
:01035D00FEA1
:06035E008B2C8A2D892E74
:1003640078647C007D017BFF7A0579587E007F14D8
:100374001200F67E007F147D007B017A00796412FE
:10038400022F78647C007D017BFF7A05794012029C
:1003940012852C35852D36852E377B017A007964BC
:1003A4001207127535FF75360575374A7B017A00D9
:1003B40079641207127535FF75360575374EE47585
:1003C4003BB8753A0BF539F538753C0A7B017A0070
:1003D4007964120460EF64014E600312079E852F56
:1003E40035853036853137E4753BB8753A0BF539C8
:1003F400F538753C0AAB2FAA30A931120460EF64BA
:10040400014E600312079E7E007F287D007B017AE7
:1004140000796412022F900064741AF0E4A3F0755A
:1004240035FF7536047537EF753B10753A27F53986
:10043400F538753C057B017A007964120460EF6439
:07044400014E600312079E48
:01044B00228E
:06060C008B4A8A4B894C69
:10061200784D7C007D007BFF7A05796C7E007F142B
:100622001200F67E007F147D007B007A00794D1265
:10063200022F784D7C007D007BFF7A0579501202F3
:1006420012854A35854B36854C377B007A00794DC9
:100652001207127535FF7536057537547B007A001F
:10066200794D1207127535FF7536047537EFE4754B
:100672003B10753A27F539F538753C0AFB7A007953
:0D0682004D120460EF64014E600312079EEC
:01068F002248
:10079E007535FF7536047537EFE4753B64F53AF53C
:1007AE0039F538753C0A7BFF7A0479EA120460EF5A
:1007BE0064014E70031208797FC87E0012082680ED
:0107CE00CF5B
:030879000200007A
:10044C00E4753BE8753A03F539F538753C0A7BFFE2
:04045C007A0579059F
:060460008B328A3389345F
:1004660012085EE4F53DE53DC3953C5070AB32AAFB
:1004760033A9341207FDE4F50BF50AF509F508AFC3
:100486003BAE3AAD39AC38AB0BAA0AA909A808C3EA
:10049600120135503B7F647E00120826E50B24646A
:1004A600F50BE4350AF50AE43509F509E43508F5EE
:1004B600088535418536428537437B017A007900C8
:1004C600120690E94A4B60B712085E7E007F012251
:1004D600E4F50BF50AF509F508053D808912085E75
:0304E600E4FEFF32
:0104E90022F0
:040822007F0A7E00CB
:10082600E4FDFCC3ED9FEC9E5015E4FBFA0BBB0008
:0F083600010AEB647B4A70F50DBD00010C80E4F4
:010845002290
:0307F90001640098
:10084600759850D29CE4F587758920758DFD758B5A
:08085600FDD28ED2AFD2AC221C
:080871008F993099FDC2992214
:1007FD008B3E8A3F8940AB3EAA3FA94012011C6047
:10080D00130540E5407002053F14F912011CFF125B
:05081D00087180E222D9
:100003008B618A6289638B418A4289437B017A00CF
:0E0013007900120690E94A4B6002D322C32204
:10085E007E007F647D007B017A00790012022FE416
:03086E00F564220C
:0300230002076A67
:10076A00C0E0C083C082C0D0C2AC30981CC29874AA
:10077A00002564F582E43400F583E599F00564E523
:10078A0064C394644003756400D2ACD0D0D082D0E4
:04079A0083D0E032F6
:0300000002058076
:0C058000787FE4F6D8FD7581640205C7A1
:10002600E709F608DFFA8046E709F208DFFA803EBC
:1000360088828C83E709F0A3DFFA8032E309F608A9
:10004600DFFA8078E309F208DFFA807088828C8311
:10005600E309F0A3DFFA806489828A83E0A3F608C5
:10006600DFFA805889828A83E0A3F208DFFA804C9F
:1000760080D280FA80C680D4806980F28033801076
:1000860080A680EA809A80A880DA80E280CA8033DF
:1000960089828A83ECFAE493A3C8C582C8CCC58357
:1000A600CCF0A3C8C582C8CCC583CCDFE9DEE78027
:1000B6000D89828A83E493A3F608DFF9ECFAA9F0A6
:1000C600EDFB2289828A83ECFAE0A3C8C582C8CCFC
:1000D600C583CCF0A3C8C582C8CCC583CCDFEADE15
:1000E600E880DB89828A83E493A3F208DFF980CC77
:1000F60088F0EF60010E4E60C388F0ED2402B40470
:100106000050B9F582EB2402B4040050AF23234516
:06011600822390007673C5
:10011C00BB010689828A83E0225002E722BBFE02E1
:09012C00E32289828A83E4932214
:10013500EB9FF5F0EA9E42F0E99D42F0E89C45F020
:010145002297
:100712008B328A3389348B388A39893AAB32053441
:10072200E534AA337002053314F912011C70ED741A
:10073200FF2534F53474FF3533F533AB350537E532
:1007420037AA367002053614F912011CFFAB3205C6
:1007520034E534AA337002053314F9EF12025B70E8
:08076200DAAB38AA39A93A22EA
:10014600E709F60870FA8046E709F20870FA803E79
:1001560088828C83E709F0A370FA807EE309F608AB
:1001660070FA8076E309F20870FA806E88828C83D2
:10017600E309F0A370FA806289828A83E0A3F60815
:1001860070FA805689828A83E0A3F20870FA804A60
:1001960080D280FA80C680D4806580F2803180105B
:1001A60080A680EA809A80A880DA80E280CA8031C0
:1001B60089828A83ECFAE493A3C8C582C8CCC58336
:1001C600CCF0A3C8C582C8CCC583CC70E9800D89A4
:1001D600828A83E493A3F60870F9ECFAA9F0EDFBA2
:1001E6002289828A83ECFAE0A3C8C582C8CCC5837B
:1001F600CCF0A3C8C582C8CCC583CC70EA80DD89A3
:10020600828A83E493A3F20870F980CE88F0ED2405
:1002160002B4040050C4F582EB2402B4040050BAC0
:0902260023234582239001967305
:100690008B3E8A3F8940AB41AA42A94312011C60AC
:1006A00063AB3EAA3FA94012011C605F85414485AF
:1006B00042458543468B478A488949AB44AA45A9A8
:1006C0004612011CFF6023AB47AA48A94912011C2E
:1006D0006F7017042546F546E43545F54574012548
:1006E00049F549E43548F54880D1AB44AA45A946C7
:1006F00012011C7002800D74012540F540E4353F65
:10070000F53F809DAB3EAA3FA940227B007A00794D
:020710000022C5
:10022F00EF4E6012EF60010EEDBB010B89828A83E6
:10023F00F0A3DFFCDEFA2289F05007F709DFFCA9F3
:0C024F00F022BBFEFCF309DFFCA9F0224A
:10058C0002026DE493A3F8E493A34003F68001F216
:10059C0008DFF48029E493A3F85407240CC8C33370
:1005AC00C4540F4420C8834004F456800146F6DF3F
:1005BC00E4800B01020408102040809007CFE47EF9
:1005CC00019360BCA3FF543F30E509541FFEE49334
:1005DC00A360010ECF54C025E060A840B8E493A3FB
:1005EC00FAE493A3F8E493A3C8C582C8CAC583CA26
:1005FC00F0A3C8C582C8CAC583CADFE9DEE780BEDE
:0107FC0000FC
:10025B00BB010689828A83F0225002F722BBFE0182
:02026B00F3227C
:00000001FF
