:020000040800F2
:10000000B8090020510B0008A5060008A706000843
:10001000AB060008AF060008B306000800000000A9
:10002000000000000000000000000000B70600080B
:10003000B906000800000000BB060008690B0008B4
:100040006B0B00086B0B00086B0B00086B0B0008B8
:100050006B0B00086B0B00086B0B00086B0B0008A8
:100060006B0B00086B0B00086B0B00086B0B000898
:100070006B0B00086B0B00086B0B00086B0B000888
:100080006B0B00086B0B00086B0B00086B0B000878
:100090006B0B00086B0B00086B0B00086B0B000868
:1000A0006B0B00086B0B00086B0B00086B0B000858
:1000B0006B0B00086B0B0008070B00086B0B0008AC
:1000C0006B0B00086B0B00086B0B00086B0B000838
:1000D0006B0B000883290008F30800086B0B00086D
:1000E0006B0B00086B0B00086B0B000800F002F8AC
:1000F00000F090F80AA090E8000C82448344AAF132
:100100000107DA4501D100F085F8AFF2090EBAE82F
:100110000F0013F0010F18BFFB1A43F0010318473B
:10012000EC4200000C430000103A24BF78C878C1AC
:10013000FAD8520724BF30C830C144BF04680C60ED
:10014000704700000023002400250026103A28BF35
:1001500078C1FBD8520728BF30C148BF0B60704739
:100160006E2902F07687702903F0D080662904F0AA
:10017000DF80652904F0DC80672904F0D9806129DB
:10018000AFF3008003681B0A28BF41F08001692992
:1001900002F0AA84642902F0A784752902F0A484DD
:1001A0006F2903F05B80782903F09C80E92902F035
:1001B000F387E42902F0F087F52902F0ED87EF29B3
:1001C00003F05880F82903F09B800368DB0928BFFF
:1001D00041F08001632903F03683732903F03B83E8
:1001E000E32903F04683F32903F04B830020704793
:1001F0001FB503F09BFB04000020002104F082F8EF
:10020000401C60600020002104F066F8E0601FBD23
:1002100010B510BD03F05DFB1146FFF7E9FF00F0DC
:1002200065F803F039FC03B4FFF7F2FF03BC02F0FA
:1002300043FB0000C648C749086070472DE9F041FC
:100240000746884614461D4600F075FB00262DE043
:10025000384600F03CFCC0A002F024FC384602F016
:1002600021FC0020C649086017E0642002F0F2FA81
:10027000C34800686430C24908604146C14802F082
:1002800035FD50B1C0A002F00DFCBE4802F00AFCE2
:1002900000F051FB0120BDE8F081B9480068A042A0
:1002A000E3D30020B6490860701CC6B2AE42CFDB73
:1002B000B5A002F0F7FBB34802F0F4FB00F03BFB03
:1002C0000020E8E704462146BAA002F0EBFB0CE070
:1002D0000A236422BAA1BCA0FFF7B0FF012801D114
:1002E000FFF7A8FFC82002F0B5FAF1E79AB002F0D4
:1002F00075FA02F0DBFA4FF4165002F0F4FA4FF4FC
:10030000165000F06EFBB0A000F0E1FB00F0C4FA64
:10031000AFA002F0C7FBB3A002F0C4FB0A2340F673
:10032000B832A7A1A8A0FFF789FF012802D00120B9
:10033000FFF7C8FF0A2002F08DFA0A2340F6B83210
:10034000AEA1B0A0FFF77AFF012802D00320FFF78B
:10035000B9FF0A2002F07EFA0A2340F6B832ACA1B7
:10036000AEA0FFF76BFF01280BD00A2340F6B8328E
:10037000ADA1AAA0FFF762FF012802D00320FFF77A
:10038000A1FF0A2002F066FA73E0642101A802F0DE
:1003900075FD642101A802F071FDA6A101A802F07B
:1003A000B7FCA94901A802F0F6FCA8A101A802F037
:1003B000F2FCA74901A802F0EEFCA6A101A802F0F8
:1003C000EAFC052342F21072A3A101A8FFF736FF51
:1003D000012802D00620FFF775FF642002F03AFAE8
:1003E00046E0052340F6B8329DA19EA0FFF726FF08
:1003F000012802D00720FFF765FF0A2002F02AFA41
:10040000642101A802F03AFD99489AA1026801A866
:1004100002F054FB96480068401C9549086001238F
:1004200040F6B83201A901A8FFF708FF012802D061
:100430000820FFF747FF0A2002F00CFA642101A808
:1004400002F01CFD1A208DF8040000208DF8050034
:10045000052342F210725AA101A8FFF7EFFE01280E
:1004600002D00B20FFF72EFF4FF4FA7002F0F2F9E2
:10047000B7E78AE730B585B004460D4614216846D3
:1004800002F0FCFC1421684602F0F8FC80A16846EA
:1004900002F03EFC2146684602F07DFC6DA16846F4
:1004A00002F079FC0A2340F6B8326DA16846FFF7E6
:1004B000C5FE012802D00620FFF704FF0A2340F6FC
:1004C000B83229462846FFF7B9FE012802D0072096
:1004D000FFF7F8FE1421684602F0D0FC1A208DF8D0
:1004E000000000208DF80100052342F2107234A1B3
:1004F0006846FFF7A3FE012802D00820FFF7E2FEBE
:1005000005B030BD10B586B00446142101A802F034
:10051000B5FC142101A802F0B1FC60A101A802F011
:10052000F7FB214601A802F036FC5DA101A802F00C
:1005300032FC0A2342F2107221A101A8FFF77EFECD
:10054000012802D00420FFF7BDFE06B010BD000058
:100550000400FA050CED00E00D0A2A2A2A2A2A2AAC
:100560002A2A2A2A2A2A2A2A2A73656E642A2A2AE9
:100570002A2A2A2A2A2A2A2A2A2A2A2A2A0D0A0042
:1005800000000020480100200D0A2A2A2A2A2A2ACF
:100590002A2A2A2A2A2A2A2A2A72656365697665FE
:1005A0002A2A2A2A2A2A2A2A2A2A2A2A2A2A2A2AAB
:1005B0000D0A00004552524F5225640D0A000000FA
:1005C0004F4B0D0A0000000041540D0A00000000CE
:1005D00057656C636F6D6520746F20757365210DB1
:1005E0000A000000494C6F76654D63752E74616F8B
:1005F00062616F2E636F6D210D0A00005245414408
:100600005900000041542B4350494E3F0D0A000051
:10061000435245473A20302C3100000041542B43CF
:100620005245473F0D0A0000435245473A20302CBF
:100630003500000041542B51494F50454E3D225446
:100640004350222C2200000028000020222C2200EF
:1006500037000020220D0A00434F4E4E4543540000
:100660003E00000041542B514953454E440D0A00B1
:1006700004000020494C6F76654D43552E74616F20
:1006800062616F2E636F6D2025640D0A000000000B
:1006900041542B434D47533D220000004154440038
:1006A0003B0D0A00704700BFFEE700BFFEE700BF3A
:1006B000FEE700BFFEE77047704770470CB50020AB
:1006C000019000906B48006840F4803069490860F0
:1006D00000BF6848006800F4003000900198401C9A
:1006E0000190009818B90198B0F5A06FF1D1614858
:1006F000006810F4003F02D00120009001E00020CB
:1007000000900098012842D15B48006840F010003A
:10071000594908600846006820F003000860084650
:10072000006840F002000860524840685149486043
:100730000846406848600846406840F48060486069
:100740000846406820F47C1048600846406840F441
:10075000E81048600846006840F08070086000BFFC
:100760004448006810F0007FFAD04248406820F00A
:100770000300404948600846406840F00200486075
:1007800000BF3C48406800F00C000828F9D10CBDBF
:1007900010B5FFF793FF10BD10B53648006840F064
:1007A000010034490860084640683449084031492E
:1007B000486008460068324908402E4908600846EB
:1007C000006820F4802008600846406820F4FE009D
:1007D00048604FF41F008860FFF7DAFF4FF00060B9
:1007E0002849086010BD10B5002100200022214BCF
:1007F0005B6803F00C0121B1042906D0082928D137
:1008000007E0214B214C236027E01F4B1F4C236046
:1008100023E0184B5B6803F47010164B5B6803F41D
:100820008032022303EB904022B9194B4343174C0B
:1008300023600DE00F4B5B6813F4003F04D0144BB2
:100840004343124C236003E00F4B43430F4C2360A0
:1008500003E00D4B0D4C236000BF00BF054B5B68F0
:10086000C3F303130B4CE15C084B1B68CB40074CF4
:10087000236010BD00100240002002400000FFF87D
:10088000FFFFF6FE08ED00E000127A0040000020B5
:1008900000093D004400002008B50121102000F0AF
:1008A000FBFC4FF40050ADF8000010208DF8030061
:1008B00003208DF802006946044800F037FA4FF42F
:1008C0000051024800F0DDFA08BD000000100140B0
:1008D00010B5044644B10021954801F035FF0121CF
:1008E000934801F09DFC03E00021914801F098FC41
:1008F00010BD10B540F225518E4800F0F5FEC8B18C
:100900008C4800F071FEC4B28B480088C82811DA08
:100910000021874801F018FF8848008810B901209D
:10092000FFF7D6FF844801880088401C824A108067
:100930008348445410BD10B5C821814802F09EFA86
:1009400000207D49088010BD7FB505460C46012179
:10095000042000F0AEFCADF80450ADF800400020DB
:10096000ADF80600ADF802006946714801F0FCF8E8
:10097000012211466E4801F06EFC1E208DF80C001D
:1009800001208DF80D0002208DF80E0001208DF859
:100990000F0003A800F001F97FBD70B58CB00646CA
:1009A0000C4615460121084600F069FC304600F06F
:1009B000DFFE019402951020039000200490059022
:1009C0008020069000200790089009904FF48050F6
:1009D0000A9000200B9001A9304600F06BFF0CB08C
:1009E00070BD10B586B004460121042000F054FC0F
:1009F0000121480400F05DFC4E4800F0B5FC0420E5
:100A0000ADF8100003208DF8120018208DF81300A7
:100A100004A94C4800F08AF90820ADF81000042021
:100A20008DF8130004A9474800F080F900940020D5
:100A3000ADF80400ADF80600ADF80800ADF80C0004
:100A40000C20ADF80A0069463A4800F0D0FC0122BB
:100A50008021384800F088FD3B4A3649091D3B4853
:100A6000FFF79BFF0121334800F04DFD012240F2CA
:100A70002551304800F053FD26208DF81400022047
:100A80008DF8150003208DF8160001208DF8170051
:100A900005A800F082F841F61F416320FFF754FFDC
:100AA000002026490880FFF713FF06B010BD70B57F
:100AB00004460D460021204600F027FF2946204627
:100AC00000F038FF0121204600F01FFF70BD0FB479
:100AD00038B505A800901C48009A049901F0D0FF91
:100AE0000020009000BF194800F026FF0028FAD12E
:100AF000154802F031F9C4B221461448FFF7D7FF78
:100B000038BC5DF814FB10B50121094801F051FE15
:100B100060B10A48008840F400400849088001217B
:100B2000034801F057FE0020FFF7D2FE10BD000081
:100B300000080040004400405400002056000020FF
:100B40004801002000080140800000208000024091
:100B50000948804709480047FEE7FEE7FEE7FEE751
:100B6000FEE7FEE7FEE7FEE7FEE7FEE7044805498D
:100B7000054A064B7047000099070008ED00000881
:100B8000B8030020B8090020B8050020B8050020EF
:100B900031490143314A1160704770B5002100238B
:100BA0000F22C4780CB32D4C246804F4E064C4F51F
:100BB000E064210AC1F10403CA40447804FA03F155
:100BC0008478144021430901254C0678A155047806
:100BD00004F01F050124AC4005786D114FF0E026AC
:100BE00006EB8505C5F8004109E0047804F01F050F
:100BF0000124AC401B4D0678761145F8264070BDA7
:100C0000194A0A400243154B1B1F1A60704739B13D
:100C1000124A121D12680243104B1B1D1A6006E097
:100C20000E4A121D126882430C4B1B1D1A6070473E
:100C3000042808D14FF0E021096941F004014FF088
:100C4000E022116107E04FF0E021096921F0040181
:100C50004FF0E022116170470000FA050CED00E052
:100C600000E400E080E100E080FFFF1F10B50446D3
:100C7000CA48844208D10121042000F027FB00214A
:100C8000042000F023FB46E0C548844208D101213E
:100C9000082000F01BFB0021082000F017FB3AE0C1
:100CA000C048844208D10121102000F00FFB002130
:100CB000102000F00BFB2EE0BB48844208D101213C
:100CC000202000F003FB0021202000F0FFFA22E0AA
:100CD000B648844208D10121402000F0F7FA0021F3
:100CE000402000F0F3FA16E0B148844208D1012117
:100CF000802000F0EBFA0021802000F0E7FA0AE003
:100D0000AC48844207D10121801500F0DFFA0021B0
:100D1000A01500F0DBFA10BD10B50121084600F067
:100D2000D5FA0021012000F0D1FA10BD2DE9F041E3
:100D3000024600250026002000230024002791F809
:100D400003C00CF00F0591F803C01CF0100F03D086
:100D500091F802C04CEA050591F800C0BCF1000F03
:100D600031D0146800202BE04FF0010C0CFA00F396
:100D7000B1F800C00CEA03069E4220D183004FF078
:100D80000F0C0CFA03F7BC4305FA03FC4CEA04040D
:100D900091F803C0BCF1280F06D14FF0010C0CFAFA
:100DA00000FCC2F814C00AE091F803C0BCF1480F7F
:100DB00005D14FF0010C0CFA00FCC2F810C0401C29
:100DC0000828D1D31460B1F800C0BCF1FF0F34DDA6
:100DD000546800202EE000F1080C4FF0010808FADA
:100DE0000CF3B1F800C00CEA03069E4221D1830047
:100DF0004FF00F0C0CFA03F7BC4305FA03FC4CEA66
:100E0000040491F803C0BCF1280F05D100F1080CCF
:100E100008FA0CF8C2F8148091F803C0BCF1480F2E
:100E200007D100F1080C4FF0010808FA0CF8C2F8DD
:100E30001080401C0828CED35460BDE8F0814FF6E6
:100E4000FF710180022181700421C1707047024648
:100E5000002093680B4201D0012000E00020704781
:100E60000146886880B2704702460020D3680B4272
:100E700001D0012000E0002070470146C86880B220
:100E8000704701617047416170470AB1016100E03C
:100E900041617047C16070474FF480320A438261FC
:100EA0008161826182698269704702460020424BFB
:100EB00018684FF68073184040EA021008433E4B12
:100EC000186070473D49C8617047F0B50A46002375
:100ED00000240021002500F00046B6F1004F02D1A9
:100EE000354EF16901E0344E7168C0F3034583B2B9
:100EF00000F44016B6F5401F08D121F070612E4E67
:100F0000766826F070662C4F7E6012E000F4801642
:100F1000B6F5801F06D1032606FA05F4A14341F079
:100F2000706106E0460D360103FA06F6B14341F062
:100F3000706122B1460D360103FA06F6314300F026
:100F40000046B6F1004F02D11B4EF16101E01A4E8E
:100F50007160F0BD30B500228B071C0F0F2303FA20
:100F600004F2154B08338C1053F824309343124C81
:100F700008348D1044F8253023468C1053F8243063
:100F80008C07240F00FA04F423430B4C08348D1013
:100F900044F8253030BD0A49086070470008014018
:100FA000000C0140001001400014014000180140F5
:100FB000001C0140002001400000014000002042D0
:100FC000DC002042DD48006840F00100DB49086099
:100FD00008464068DA490840D84948600846006831
:100FE000D8490840D54908600846006820F48020A8
:100FF00008600846406820F4FE0048604FF41F0077
:1010000088607047CD49096821F48031CB4A11606E
:101010001146096821F480211160B0F5803F03D0AA
:10102000B0F5802F0ED106E0C449096841F4803143
:10103000C24A116007E0C149096841F4A021BF4AD2
:10104000116000E000BF00BF704710B501460022EC
:10105000002300204A11012A02D1B84C236806E07F
:10106000022A02D1B54C236A01E0B44C636A01F054
:101070001F02012494401C4201D0012000E0002006
:1010800010BD38B5002000900024002500BF31209D
:10109000FFF7DBFF05460098401C00900098B0F574
:1010A000A06F01D0002DF2D03120FFF7CEFF08B1A4
:1010B000012400E00024204638BD014600209F4A5C
:1010C000106820F0F80040EAC100106070479E49A7
:1010D0000860704702460020984B586820F47C1046
:1010E00042EA01031843954B5860704796490866D9
:1010F000704701460020914A506820F003000843E1
:10110000506070478D48406800F00C007047014601
:1011100000208A4A506820F0F00008435060704771
:1011200001460020854A506820F4E0600843506082
:10113000704701460020814A506820F4605040EA20
:10114000C1005060704729B17C4A527A02437B4B00
:101150005A7204E0794A527A8243784B5A72704745
:101160007A490860704701460020744A506820F4AC
:1011700040400843506070470021754A11706F4A23
:1011800082F82010012802D0042808D103E00121B0
:101190006F4A117004E005216D4A117000E000BF34
:1011A00000BF70476B49086070476449096A014392
:1011B000624A11627047674944390860704730B528
:1011C00000210022002400235C4D6D6805F00C0115
:1011D00021B1042905D0082923D105E05E4D056021
:1011E00022E05D4D05601FE0544D6D6805F47012FE
:1011F000524D6D6805F48034022505EB92421CB90E
:10120000564D554305600BE04C4D6D6815F4003F9D
:1012100003D0524D5543056002E04F4D55430560E4
:1012200002E04D4D056000BF00BF444D6D6805F004
:10123000F00109094A4D6B5C0568DD4045603F4D92
:101240006D6805F4E061090A454D6B5C4568DD4059
:1012500085603A4D6D6805F46051C90A404D6B5C7C
:101260004568DD40C560354D6D6805F44041890B2A
:101270003C4D6B5CC568B5FBF3F5056130BD29B12C
:101280002E4A526902432D4B5A6104E02B4A52699F
:1012900082432A4B5A61704729B1284A9269024316
:1012A000264B9A6104E0254A92698243234B9A6156
:1012B000704729B1214AD2690243204BDA6104E028
:1012C0001E4AD26982431D4BDA61704729B11B4A1D
:1012D000D2680243194BDA6004E0184AD2688243AC
:1012E000164BDA60704729B1144A12690243134B56
:1012F0001A6104E0114A12698243104B1A61704767
:1013000014494039086070470F49C86470470B4959
:10131000C87170470948406A40F0807007494862C8
:10132000704701460020054A92680A4201D0012018
:1013300000E00020704701498872704700100240A9
:101340000000FFF8FFFFF6FE00004242D8004242D4
:10135000201002408004424200127A0000093D0041
:10136000580000206800002010B50446FB48844265
:1013700009D101218803FFF7A9FF00214FF4804024
:10138000FFF7A4FF32E0F648844209D10121480466
:10139000FFF7A9FF00214FF40030FFF7A4FF25E07D
:1013A000F048844209D101218804FFF79CFF002105
:1013B0004FF48020FFF797FF18E0EB48844209D1F3
:1013C0000121C804FFF78FFF00214FF40020FFF731
:1013D0008AFF0BE0E548844208D101210805FFF7A8
:1013E00082FF00214FF48010FFF77DFF10BD2DE933
:1013F000F04786B005460E460024A24600BFA1462F
:101400000027B08900B100BF2F462C8A4CF6FF7030
:101410000440F08804432C82AC894EF6F31004405B
:10142000B08831890843718908430443AC81AC8A90
:101430004FF6FF400440B0890443AC8201A8FFF797
:10144000BEFEC648874202D1DDF810A001E0DDF8FB
:101450000CA0A88910F4004F08D00AEBCA0000EBDA
:101460000A1031684900B0FBF1F807E00AEBCA0046
:1014700000EB0A1031688900B0FBF1F86420B8FB7A
:10148000F0F004012009642101FB1089A88910F4FF
:10149000004F08D0322000EBC900B0FBF1F000F0A3
:1014A0000700044308E0322000EB09106421B0FB80
:1014B000F1F000F00F0004432C8106B0BDE8F08786
:1014C0004FF41651016000218180C18001810C21FF
:1014D000418100218181704710B502460020108AA9
:1014E0004FF2FF0318400B884C8823438C8823431A
:1014F000CC8823431843108210BD00210180418015
:101500008180C180704721B1828942F4005282817A
:1015100004E082894DF6FF731A4082817047F0B56E
:1015200003460024002600250020A1F510676A3F2D
:1015300000D100BF1846C1F3421401F01F06012775
:1015400007FA06F5012C01D10C3004E0022C01D180
:10155000103000E014301AB107682F43076002E032
:101560000768AF430760F0BD1AB1838A0B438382DB
:1015700002E0838A8B4383827047028A4FF6F073BE
:101580001A400282028A0A430282704782894FF21D
:10159000FF731A40828182890A438281704721B198
:1015A000828942F00202828104E082894FF6FD7353
:1015B0001A4082817047028A4FF6DF731A40028216
:1015C000028A0A430282704721B1028A42F48042B1
:1015D000028204E0028A4BF6FF731A4002827047CF
:1015E000C1F308028280704701468888C0F3080072
:1015F0007047818941F0010181817047028BD2B22D
:101600000283028B42EA012202837047028B02F4BA
:101610007F420283028B0A430283704721B1828A90
:1016200042F02002828204E0828A4FF6DF731A4081
:101630008282704721B1828A42F01002828204E0E5
:10164000828A4FF6EF731A408282704721B1828AF4
:1016500042F00802828204E0828A4FF6F7731A4051
:101660008282704721B1828942F40042828103E084
:101670008289C2F30E028281704721B1828A42F4CC
:101680000062828204E0828A4FF2FF731A408282F3
:101690007047828A4FF6FB731A408282828A0A431D
:1016A0008282704721B1828A42F00202828204E083
:1016B000828A4FF6FD731A408282704702460020EC
:1016C000B1F5007F00D100BF13880B4201D001208B
:1016D00000E00020704701F40072B2F5007F00D1F5
:1016E00000BFCA430280704770B502460024002341
:1016F00000250020A1F510666A3E00D100BFC1F3AD
:10170000421501F01F03012606FA03F3012D02D151
:101710009689334006E0022D02D1168A334001E05B
:10172000968A33400C12012606FA04F416883440D7
:1017300013B10CB1012000E0002070BD10B50022F3
:101740000023A1F510646A3C00D100BF0A120124F5
:101750009440A3B2DC43048010BD00000038014077
:101760000044004000480040004C00400050004051
:1017700001684FF6FE721140016000210160416076
:101780008160C1608C49884208D18B490839496819
:1017900041F00F01884A083A51608AE086491431C5
:1017A000884208D184490839496841F0F001824AE9
:1017B000083A51607DE080492831884208D17E494D
:1017C0000839496841F470617B4A083A516070E019
:1017D00079493C31884208D177490839496841F450
:1017E0007041754A083A516063E07349503188424C
:1017F00008D171490839496841F470216E4A083AA4
:10180000516056E06C496431884208D16A49083910
:10181000496841F47001684A083A516049E06649F4
:101820007831884208D164490839496841F07061CB
:10183000614A083A51603CE06049884206D1011F84
:10184000096841F00F01021F116032E05B49143159
:10185000884208D15949091F096841F0F001574AE7
:10186000121F116025E055492831884208D153499B
:10187000091F096841F47061504A121F116018E095
:101880004E493C31884208D14C49091F096841F44E
:1018900070414A4A121F11600BE04849503188429A
:1018A00007D14649091F096841F47021434A121FB4
:1018B0001160704710B50022026847F6F0739A4332
:1018C0000C6A8B6823430C6923434C6923438C695E
:1018D0002343CC6923434C6A23438C6A23431A4332
:1018E0000260CB6843600B6883604B68C36010BDC7
:1018F0000021016041608160C160016141618161DD
:10190000C161016241628162704721B1026842F0A7
:101910000102026004E002684FF6FE731A400260A2
:1019200070471AB103680B43036002E003688B43FE
:1019300003607047416070470146486880B2704755
:1019400001460020002211F0805F03D01B4B083BB2
:101950001A6802E0184B083B1A680A4201D00120BD
:1019600000E00020704710F0805F03D01349091F8A
:10197000086002E0104908394860704701460020BD
:10198000002211F0805F03D00C4B083B1A6802E084
:10199000094B083B1A680A4201D0012000E00020F0
:1019A000704710F0805F03D00449091F086002E00F
:1019B00001490839486070470800024008040240A5
:1019C00010B50446FE48844208D10121C014FFF737
:1019D0007DFC0021E014FFF779FCC4E0B4F1804FF6
:1019E00008D101210846FFF77EFC00210120FFF706
:1019F0007AFCB8E0F348844208D101210220FFF7C5
:101A000072FC00210220FFF76EFCACE0EE4884423D
:101A100008D101210420FFF766FC00210420FFF714
:101A200062FCA0E0E948844208D101210820FFF7C8
:101A30005AFC00210820FFF756FC94E0E448844259
:101A400008D101211020FFF74EFC00211020FFF7E4
:101A50004AFC88E0DF48844208D101212020FFF7BA
:101A600042FC00212020FFF73EFC7CE0DA48844263
:101A700008D101214014FFF729FC00216014FFF771
:101A800025FC70E0D548844209D10121C804FFF744
:101A90001DFC00214FF40020FFF718FC63E0D04844
:101AA000844209D101210805FFF710FC00214FF401
:101AB0008010FFF70BFC56E0CA48844209D101218F
:101AC0004805FFF703FC00214FF40010FFF7FEFB71
:101AD00049E0C548844208D101214020FFF703FCBA
:101AE00000214020FFF7FFFB3DE0C048844208D1C1
:101AF00001218020FFF7F7FB00218020FFF7F3FB97
:101B000031E0BB48844208D101218015FFF7EBFB8F
:101B10000021A015FFF7E7FB25E0B648844209D174
:101B200001210804FFF7D2FB00214FF48030FFF7BA
:101B3000CDFB18E0B048844209D101214804FFF7E9
:101B4000C5FB00214FF40030FFF7C0FB0BE0AB48B2
:101B5000844208D101218804FFF7B8FB00214FF42B
:101B60008020FFF7B3FB10BD00220288944B9842FF
:101B70000ED0994B98420BD0B0F1804F08D0914BCA
:101B8000984205D0904B984202D0904B984204D195
:101B90004FF68F731A404B881A438D4B984207D0EB
:101BA0008C4B984204D04FF6FF431A40CB881A431F
:101BB00002808B8883850B880385814B98420BD0EC
:101BC000854B984208D08B4B984205D08A4B98425F
:101BD00002D08A4B984201D10B7A0386012383827B
:101BE000704770B5002400220023058C4FF6FE7666
:101BF00035400584028C8388048B4FF68F752C400A
:101C0000B51E2C400D882C43751E2A400D892A4391
:101C10004D882A436A4DA8420BD06F4DA84208D088
:101C2000744DA84205D0744DA84202D0734DA8420D
:101C300013D14FF6F7752A404D892A434FF6FB75AD
:101C40002A408D882A434FF6FF652B404FF6FF55FB
:101C50002B408D892B43CD892B4383800483CD88F2
:101C60008586028470BD70B5002400220023058C97
:101C70004FF6EF7635400584028C8388048B48F656
:101C8000FF752C404FF6FF452C400D884FF6FF7630
:101C900006EA05252C434FF6DF752A400D8906EA32
:101CA00005152A434D8806EA05152A43444DA842E6
:101CB00002D0494DA8421DD14FF67F752A404D896B
:101CC0004FF6FF7606EA05152A434FF6BF752A4000
:101CD0008D8806EA05152A434FF6FF352B404FF253
:101CE000FF752B408D8906EA85052B43CD8906EAD1
:101CF00085052B4383800483CD880587028470BDCE
:101D000070B5002400220023058C4FF6FF66354095
:101D10000584028C8388848B4FF68F752C404FF698
:101D2000FC752C400D882C434FF6FF552A400D8939
:101D30004FF6FF7606EA05252A434D8806EA052573
:101D40002A431F4DA84202D0234DA8421DD14FF275
:101D5000FF752A404D894FF6FF7606EA05252A438E
:101D60004FF6FF352A408D8806EA05252A434EF6B0
:101D7000FF752B404DF6FF752B408D8906EA051542
:101D80002B43CD8906EA05152B4383808483CD88B8
:101D90008587028470BD70B5002200230024058C65
:101DA0004EF6FF7635400584038C8488828B48F696
:101DB000FF752A404FF6FF452A400D8820E00000BD
:101DC000002C01400004004000080040000C0040CE
:101DD000001000400014004000340140004C01405D
:101DE000005001400054014000180040001C004019
:101DF00000200040004001400044014000480140F4
:101E00004FF6FF7606EA05252A434DF6FF752B406F
:101E10000D8906EA05352B434D8806EA05352B4327
:101E2000FA4DA84202D0FA4DA84208D14BF6FF75F0
:101E30002C408D894FF6FF7606EA85152C43848069
:101E40008283CD88A0F84050038470BD828B4FF20E
:101E5000FF331A408283828B4FF6FF7303EA01231C
:101E60001A4382837047F0B50C46154600220021C4
:101E70000026078C4EF6FF7C07EA0C070784828B4E
:101E8000018C4FF6FF7707EA043640F6FF473A40E9
:101E90004FF6FF7707EA05273A434FF6FF7707EA41
:101EA00003373A43D94FB8420ED0D94FB8420BD07E
:101EB000B0F1804F08D0D74FB84205D0D64FB842C6
:101EC00002D0D64FB84206D14DF6FF77394046F4DE
:101ED0008057394305E047F6FF57394044F48057AF
:101EE000394382830184F0BD828B4FF6F3731A402D
:101EF0008283828B0A4382837047F0B50C46154675
:101F0000002200210026078C4FF6FF6C07EA0C0721
:101F10000784828B018C4FF6FF7707EA04264FF681
:101F20000C773A404FF6FF7707EA03172F433A43FF
:101F3000B64FB8420ED0B64FB8420BD0B0F1804F7A
:101F400008D0B44FB84205D0B34FB84202D0B34F17
:101F5000B84206D14FF6FF57394046F480773943EF
:101F600005E04FF2FF57394044F4807739438283CC
:101F70000184F0BD028B4FF2FF331A400283028BC3
:101F80004FF6FF7303EA01231A4302837047F0B54B
:101F90000C461546002200210026078C4FF6EF7CE8
:101FA00007EA0C070784028B018C4FF6FF7707EADC
:101FB000041640F6FF473A404FF6FF7707EA03372B
:101FC0003A434FF6FF7707EA05273A438F4FB84267
:101FD0000ED08F4FB8420BD0B0F1804F08D08D4F4C
:101FE000B84205D08C4FB84202D08C4FB84206D1CF
:101FF0004FF6DF77394046F01007394305E04FF6DA
:102000005F77394044F01007394302830184F0BD03
:10201000028B4FF6F3731A400283028B0A4302834A
:102020007047F0B50C46154600220021068C4FF68D
:10203000FE773E400684028B018C4FF60C763240D0
:102040007E1C06EA03162E433243704EB0420ED079
:102050006F4EB0420BD0B0F1804F08D06D4EB04201
:1020600005D06D4EB04202D06C4EB04206D14FF654
:10207000FD76314044F00106314305E04FF6F57638
:10208000314044F00106314302830184F0BD70B554
:1020900005460C465D4885420ED05D4885420BD012
:1020A000B5F1804F08D05B48854205D05A4885423B
:1020B00002D05A48854200D100E000BF208850B9C4
:1020C0002389A28861882846FFF7ABFFE18828466C
:1020D000FFF79EFF25E0208804280AD12389A288E3
:1020E00061882846FFF753FFE1882846FFF742FF43
:1020F00017E0208808280AD12389A2886188284609
:10210000FFF7FBFEE1882846FFF7EEFE09E0238992
:10211000A28861882846FFF7A6FEE1882846FFF7D7
:1021200095FE70BD2DE9F04105460C4600260127BD
:10213000608808B9022600E00026A088012801D1A5
:10214000022700E001272088A0B92389A28861889E
:102150002846FFF766FFE1882846FFF759FF2389E5
:102160003A4631462846FFF712FFE1882846FFF736
:1021700001FF13E02389A28861882846FFF707FF43
:10218000E1882846FFF7F6FE23893A46314628467D
:10219000FFF747FFE1882846FFF73AFFBDE8F081E7
:1021A0000A884B881A438B881A43CB881A430B89B9
:1021B0001A434B891A438B891A43A0F8442070476D
:1021C0004FF6FF71818000210180C1804180017242
:1021D00070470021018041808180C180018141815F
:1021E0008181C1817047002101804180012181806E
:1021F0000021C180018170470021018041808180E0
:10220000C18001814181818170470000002C014023
:10221000003401400004004000080040000C004071
:1022200021B1028842F00102028004E002884FF6E8
:10223000FE731A400280704731B1B0F8442042F476
:102240000042A0F8442005E0B0F84420C2F30E029A
:10225000A0F8442070471AB183890B43838102E0C0
:1022600083898B43838170478182704741EA0203EF
:10227000A0F8483070471AB183890B43838102E08C
:1022800083898B438381704701894FF6F87211402F
:10229000018170470A46002101894FF68F7319406A
:1022A00011430181704730B504460D46294620464A
:1022B000FFF7F0FF208940F00700208130BD2DE9B5
:1022C000F04104460D4616461F46602D06D13B469A
:1022D000012231462046FFF75AFE05E03B46012227
:1022E00031462046FFF79DFE29462046FFF7D2FFE4
:1022F000208940F007002081BDE8F08130B50C4610
:1023000000210189C9B24FF6FF7505EA032515437F
:1023100025432943018130BD2DE9F04105460E4694
:1023200017469846002443463A4631462846FFF76A
:10233000E5FF2C894FF6F870044044F007044FF68F
:102340008F70044044F070042C81BDE8F081F0B53A
:1023500004460D4616461F463B4632462946204651
:10236000FFF7CCFF208940F480402081F0BD01853B
:10237000828270470A46002101884FF68F73194008
:10238000114301807047F0B50C4615461E460021EA
:10239000002200230189028B038C4FF6F877394025
:1023A00021434FF6FC473A4040F201173A434FF6BB
:1023B000DD773B404FF6FF7707EA06172F433B4395
:1023C000018102830384F0BD0A460021018B4FF690
:1023D0008F7319401143018370470A460021018B16
:1023E00048F6FF7319404FF6FF7303EA02231943BF
:1023F000018370470A460021818B4FF68F73194085
:102400001143818370470A460021818B48F6FF7390
:1024100019404FF6FF7303EA022319438183704783
:1024200021B1028842F08002028004E002884FF667
:102430007F731A400280704721B1828842F0040203
:10244000828004E082884FF6FB731A4082807047D6
:1024500021B1828842F00802828004E082884FF62F
:10246000F7731A408280704721B1828842F00102DE
:10247000828004E082884FF6FE731A4082807047A3
:102480000A460021018B4FF6F7731940114301836F
:1024900070470A460021018B4FF2FF7319404FF637
:1024A000FF7303EA02231943018370470A460021A0
:1024B000818B4FF6F77319401143818370470A46A9
:1024C0000021818B4FF2FF7319404FF6FF7303EA2F
:1024D00002231943818370470A460021018B4FF67E
:1024E000FB7319401143018370470A460021018B99
:1024F0004FF6FF3319404FF6FF7303EA02231943E7
:10250000018370470A460021818B4FF6FB73194007
:102510001143818370470A460021818B4FF6FF33B8
:1025200019404FF6FF7303EA022319438183704772
:102530000A460021018B4FF67F7319401143018336
:1025400070470A460021018BC1F30E014FF6FF735D
:1025500003EA02231943018370470A460021818B55
:102560004FF67F7319401143818370470A4600215B
:10257000818BC1F30E014FF6FF7303EA0223194367
:10258000818370470A460021018C4FF6FD73194084
:102590001143018470470A460021018C4FF6F773FE
:1025A00019401143018470470A460021018C4FF6FF
:1025B000DF7319404FF6FF7303EA021319430184D6
:1025C00070470A460021018C4FF67F7319404FF681
:1025D000FF7303EA02131943018470470A4600217E
:1025E000018C4FF6FF5319404FF6FF7303EA0223A5
:1025F0001943018470470A460021018C4FF2FF7392
:1026000019404FF6FF7303EA022319430184704710
:102610000A460021018C4DF6FF7319404FF6FF73F7
:1026200003EA023319430184704730B500230124C3
:102630008C40A3B2048C9C430484048C02FA01F500
:10264000ADB22C43048430BD30B5002304248C404B
:10265000A3B2048C9C430484048C02FA01F5ADB24D
:102660002C43048430BD70B5034600200024184676
:10267000183001258D40ACB21D8CA5431D8409B1D5
:10268000082909D100EB6100056825F07005056097
:102690000568154305600EE00D1FC5F34E0528447F
:1026A000056825F4E045056005684FF6FF7606EA03
:1026B00002263543056070BD21B1028842F0020256
:1026C000028004E002884FF6FD731A4002807047D2
:1026D00021B1028842F00402028004E002884FF631
:1026E000FB731A400280704721B1828842F0800259
:1026F000828004E082884FF67F731A4082807047A0
:1027000002884FF6F7731A40028002880A4302805B
:10271000704782884FF68F731A40828082880A43FE
:102720008280704702894FF6F8731A40028102894D
:102730000A430281704702894FF67F731A40028173
:1027400002890A43028170478184704781857047FE
:10275000818670470187704781877047A0F84010D5
:10276000704702884FF6FF431A40028002880A43EE
:10277000028070470146888E70470146088F704777
:102780000146888F70470146B1F840007047014606
:10279000888C70470146088D704702460020138AD6
:1027A0000B4201D0012000E000207047CA430282A2
:1027B000704730B50246002000230024158A05EA40
:1027C0000103958905EA010413B10CB1012000E071
:1027D000002030BDCA4302827047000010B56FF080
:1027E0000400FEF725FA2D4800682D49B0FBF1F0F2
:1027F0002C4908700846007800EB4001C1EBC0107E
:102800004FF6FF7101EAC0002749088010BD01465C
:10281000244A12784A434FF0E0235A6100229A6119
:102820001A46126942F001021A6100BF4FF0E0221D
:10283000106910F0010F02D010F4803FF6D04FF075
:10284000E022126922F001024FF0E0231A61002217
:102850009A6170470146144A12884A434FF0E023B8
:102860005A6100229A611A46126942F001021A6105
:1028700000BF4FF0E022106910F0010F02D010F4F9
:10288000803FF6D04FF0E022126922F001024FF0B3
:10289000E0231A6100229A61704700004000002086
:1028A00000127A006C0000206E00002010B54FF47A
:1028B000A060FEF76DF910BD014600BF704700BF74
:1028C000694A128812F0400FFAD0C2B2664B1B1D43
:1028D0001A80704710B5C821644800F0ADFA002096
:1028E0006349088010BD10B586B00446012144F24A
:1028F0000400FEF7D1FC4FF40070ADF81400032083
:102900008DF8160018208DF8170005A95948FEF714
:102910000DFA4FF48060ADF8140004208DF8170014
:1029200005A95448FEF702FA25208DF8000003207F
:102930008DF801008DF8020001208DF80300684633
:10294000FEF72BF901940020ADF80800ADF80A005D
:10295000ADF80C00ADF810000C20ADF80E0001A988
:102960004148FEF744FD012240F225513E48FEF762
:10297000D6FD01213C48FEF7C6FDFFF7ABFF06B0D0
:1029800010BD10B540F225513748FEF7ADFE0028C6
:1029900039D03548FEF728FEC4B2242C02D10020DD
:1029A00033490880324801880088401C304A108032
:1029B0002E484454007824281ED12C4800794D28F4
:1029C0001AD12A484079432816D10A2C14D1502113
:1029D000294800F031FA264802882449264800F0A8
:1029E000E6F90120244981F85000002020490880A0
:1029F000C8211E4800F020FA1D480088C82802DBC4
:102A0000C8201B49088010BD10B504462146174850
:102A100000F06CF908B1012010BD0020FCE710B5F2
:102A20000020154981F8500081F8510081F87800A4
:102A30005021114800F000FA0F4852300021016087
:102A40004160018181720B300160416001818172BE
:102A50005D38A0F868106A300160416081606A38B2
:102A6000A0F8761010BD0000003801408902002057
:102A70007000002000080140100200207047000094
:102A80001CB50C46064B7B4469460090204600F07E
:102A9000FAFA04460020694600F008FB20461CBDF7
:102AA000230600000FB4044910B503AA029800F0F1
:102AB00003FB10BC5DF814FB780000200FB41CB5BC
:102AC000084B06AA7B4469460090059800F0DBFAA3
:102AD00004460020694600F0E9FA20461CBC5DF877
:102AE00014FB0000E50500002DE9F0410646002436
:102AF00010687529314616A511D000F013FA002888
:102B000003DAC0F1000013A507E031688A0701D598
:102B100011A502E0490704D510A5012401E000F049
:102B20000AFA00210A2306F1240707E0B0FBF3F2BA
:102B300003FB1200303078541046491C0028F5D1B0
:102B400023462A463046BDE8F04100F026BA000090
:102B5000000000002D0000002B00000020000000FD
:102B60002DE9F05F894604464FF0000ADFF878B19E
:102B7000FB44C0F820A02046E1688847002875D0B3
:102B8000252806D0D4E901219047206A401C206204
:102B9000F1E700265F462046E16888472028054681
:102BA00008DB312D06D207EB050010F8200C08B128
:102BB0000643F0E7B00701D526F00406C4F81CA0D0
:102BC0000027C4F818A02A2D09D0284601F07DFB63
:102BD00038B304EB8708303DC8F8185019E059F8AD
:102BE000041B204604EB87029161E1688847012FAE
:102BF000054618D1E069002820DA26F020061DE0FD
:102C0000D8F8180000EB800005EB40003038C8F819
:102C100018002046E1688847054601F056FB002869
:102C2000EED1012F0AD02E2D08D12046E168884729
:102C30007F1C0546022F46F02006C4DBA069002851
:102C400003DA404246F00106A061F00701D026F009
:102C500010066C2D0BD0682D09D04C2D39D06A2D63
:102C600035D0742D35D07A2D33D016E038E0E168B8
:102C70002F4620468847B842054609D16C2F26D0FA
:102C80004FF48060E168064320468847054604E02B
:102C90006C2F1AD04FF4807006430DB3A5F141009C
:102CA000192802D8203546F400664A4629462046AF
:102CB00026604E46FDF754FA80B101280BD0F61D70
:102CC00026F0070000F1080955E74020E4E78020DE
:102CD000D8E70020D6E706F104094CE7284651E77B
:102CE000206ABDE8F09F0000C017000030B505461F
:102CF0000B462A4613F8014B12F8010B08B1A0420B
:102D0000F8D01CB1002802D06D1CF1E7284630BD78
:102D100040EA0103024630B59B0710D14FF0013461
:102D200000E008C208C91D1B9D4315EAC41FF8D066
:102D300013F0FF0102F8011B0DD01B0AF8E711F890
:102D4000013B002B02F8013B05D011F8013B002BA1
:102D500002F8013BF3D130BD10B5431C02E010F87E
:102D6000011B71B18107FAD14FF0013202C88C1AF0
:102D70008C4314EAC211F9D0C01A0A0603D0C01E4F
:102D800010BDC01A10BD0A0401D0801E10BD09027A
:102D9000FCD0401E10BD421E12F8013F002BFBD19B
:102DA00011F8013B002B02F8013BF9D17047032ACF
:102DB00040F2308010F0030C00F0158011F8013B58
:102DC000BCF1020F624498BF11F801CB00F8013B3F
:102DD00038BF11F8013BA2F1040298BF00F801CB03
:102DE00038BF00F8013B11F0030300F09B82083A62
:102DF000C0F0088051F8043B083A51F804CBA0E831
:102E00000810F5E7121D5CBF51F8043B40F8043B85
:102E1000AFF30080D20724BF11F8013B11F801CBBA
:102E200048BF11F8012B24BF00F8013B00F801CB8B
:102E300048BF00F8012B70474FF000020429C0F092
:102E4000128010F0030C00F01B80CCF1040CBCF1DC
:102E5000020F18BF00F8012BA8BF20F8022BA1EB2E
:102E60000C0100F00DB85FEAC17C24BF00F8012B13
:102E700000F8012B48BF00F8012B70474FF000020B
:102E800000B5134694469646203922BFA0E80C5060
:102E9000A0E80C50B1F12001BFF4F7AF090728BF3B
:102EA000A0E80C5048BF0CC05DF804EB890028BFB7
:102EB00040F8042B08BF704748BF20F8022B11F0E0
:102EC000804F18BF00F8012B70477047704770475C
:102ED000704770B5044685690068C10601D5302683
:102EE00000E02026C00708D070BDD4E9012130469B
:102EF0009047206A00F1010020626D1EF5D570BD7B
:102F000070B5044685690078C00708D170BDD4E962
:102F1000012120209047206A00F1010020626D1EEF
:102F2000F5D570BD09684A0501D540B27047C9059D
:102F3000FCD500B2704709684A0501D5C0B2704798
:102F4000C905FCD580B2704770B50C460546012A0C
:102F500005D02878800600D5EA69002302E0012325
:102F600005E05B1C934202D2E05C0028F9D1A8691D
:102F7000E618C01AA861286A184428622846FFF794
:102F8000A8FF04E0D5E9012114F8010B9047B442F1
:102F9000F8D32846FFF7B4FF70BD2DE9F0470D4682
:102FA00099469246044600F124080168880604D533
:102FB000E06921F01001216000E00120A84202DD5B
:102FC000A0EB050700E00027A16907EB050202EB73
:102FD0000900A1EB0000A0612078C00602D42046C1
:102FE000FFF777FF002608E0D4E901211AF8060070
:102FF0009047206A401C761C20624E45F4DB207806
:10300000C0060AD52046FFF764FF06E0D4E9012197
:1030100030209047206A401C2062381EA7F101072B
:10302000F4DC07E0D4E9012118F805009047206A94
:10303000401C2062281EA5F10105F3DC2046FFF7A5
:103040005FFF2078000602D50220BDE8F08701204E
:10305000FBE711680268006A530501D508700BE0B0
:10306000D30501D5088007E0130603D5C217C1E9CF
:10307000000201E0520608600120704701694A1C05
:1030800002610878704700B58FB0CDE901310021A9
:10309000059105497944CDE9031011466846FFF7CB
:1030A0005FFD0FB000BD0000E5FFFFFF0A6802F8FA
:1030B000010B0A6070470000074B70B50D467B445A
:1030C000FFF7E1FF0446284600F0DFFB10B14FF0A8
:1030D000FF3070BD204670BDFDF7FFFF2DE9FF5F9B
:1030E00015468A460446DFF8AC80F8440027D8E944
:1030F00000103E46CDE9001011E03AF816106A467D
:1031000002A800F0C6FB411C07D02178890603D530
:10311000E269391891420ED8074406F10106207879
:10312000800602D5E069B84205DDAE42E5DB3AF83B
:1031300016000028E1D1A069C01BA0612046FFF75E
:10314000C8FED8E90010CDE90010002016E03AF8DA
:1031500018106A4602A800F09CFB8146401C0BD068
:1031600000250DF1080B05E0D4E901211BF805004D
:1031700090476D1C4D45F7D308F10100B0428046E1
:10318000E5DB206A384420622046FFF7B9FEBDE83F
:10319000FF9F00005A1200002DE9F0418046D21D29
:1031A00022F007020025D2E90002F52914A612D068
:1031B000002A06DA0023D0EB030063EB020211A61B
:1031C00008E0D8F800108B0701D50FA602E04907E8
:1031D00001D50EA601251146002408F1240704E0BC
:1031E00000F0D2F830323A55641C50EA0102F7D1AF
:1031F0002B46324621464046BDE8F041FFF7CDBEA2
:10320000000000002D0000002B0000002000000046
:1032100030B4002100F124040CE002F0070505F1B0
:1032200030054FEAD20242EA4372655401F10101CE
:103230004FEAD30352EA0305EFD10468002310A23A
:10324000250708D504F020040C4304D0C4690123E9
:103250000CA2641EC46130BCFFF79FBE10B50446CB
:1032600021461068FFF767FE02462046BDE8104081
:103270000023CDE7D21D22F00701D1E90023C7E7E3
:103280000000000030000000F0B40D460188090580
:1032900002D5234C7C4402E0214C7C440E340021B6
:1032A00000F124060BE002F00F074FEA1212E75D6F
:1032B00042EA03724FEA1313775401F1010152EA13
:1032C0000307F0D102780023120704D5702D06D031
:1032D00009B1113402232246F0BCFFF75EBE103460
:1032E0000123F8E770B504460D4621461068FFF744
:1032F00022FE024629462046BDE870400023C3E76F
:10330000D21D22F00703D3E90023BDE7036812684A
:1033100043F0200303600823C3610023B4E70000E7
:10332000B810000010B5203AC0F00B80B1E818507A
:10333000203AA0E81850B1E81850A0E81850BFF49F
:10334000F5AF5FEA027C24BFB1E81850A0E818503E
:1033500044BF18C918C0BDE810405FEA827C24BF92
:1033600051F8043B40F8043B08BF7047D20728BF20
:1033700031F8023B48BF11F8012B28BF20F8023B6F
:1033800048BF00F8012B704730B5B0F10A024FEA90
:10339000900E71F100034EEA817EB0EB0E0061EBFE
:1033A00091014FEA101E4EEA017E10EB0E0041EB38
:1033B00011114FEA102E4EEA016E10EB0E0041EB98
:1033C00011214FEA104E4EEA014E10EB0E0041EB78
:1033D0001141401841F100014FEAD00040EA41702C
:1033E0004FEAD10110EB80054FEA810444EA907462
:1033F00044EB01046D1944EB0404521BA3414FF04C
:10340000000348BF0A3200D530BD401C41F1000125
:1034100030BD70472DE9FF4F0C461E464FF0FF3779
:103420008BB0D2E90001DDF860800A908A46C1F3D2
:103430000A5505B93D46002108464FF00000BAF193
:10344000000F00F4400005DA00EB80004FF440016B
:1034500001EA50004FEA9059B9F1010F00DDB94679
:103460000A9850EA4A000ED044F61050A5F2FF35F3
:1034700045432F14B8F1000F1ED07542291E1EDDE2
:10348000C9F100021CE0B8F1010F4FF0000001D0BB
:10349000302103E0F24305E02154401CB042FBDB45
:1034A00030460022002121540B99C1F80880C1E95F
:1034B00000200FB0BDE8F08FBD1B6D1CDEE74A4653
:1034C00000DA694206A800F075FA06AB07CB03AB39
:1034D00007C350460A9900F029FB8DE80700A0F5C4
:1034E00000501F3800900398002D09DD42F21F01A3
:1034F0004A46084403A90390684600F088FD08E0A6
:10350000A0F500504A461F3803A90390684600F012
:1035100092FD8DE807000004000C03D04FF0FF304F
:10352000410800E01046B8F1000F03D000220092DD
:1035300015461FE0751E06D4FFF726FF02F1300284
:1035400062556D1EF8D5B3460122084302D0002211
:103550007F1C04E02078302801D100227F1E002A41
:10356000099787D01DE0112D07DAFFF70DFF3032E4
:1035700062556D1C50EA0102F5D108430FD10021BC
:10358000681E05E0235C625C6354491C2254401EA3
:103590008142F7DBAB46A81B401E099001E0009872
:1035A00048B1002004F80B000B98099AC0F8088075
:1035B000C0E9002B7DE711264FF000085AE72DE9FE
:1035C000F04F88460446D21D22F0070191B0D1E9A0
:1035D0000001CDE90A0100F064FE02460B98C00F1D
:1035E00001D02D2007E02068810701D52B2002E0C3
:1035F000202101EAC000032A099001D0072A05DB37
:1036000003464146204600F095F90FE120788006F8
:1036100001D5E06900E00620B8F1650F814606D0CB
:10362000B8F1660F18D0B8F1670F72D132E0002000
:10363000B9F1110F009001DB112301E009F1010341
:103640000AAA01A90CA8FFF7E5FEDDE90C70002627
:1036500009F10105834648E001204B4600904FF0F8
:1036600000470AAA01A90CA8FFF7D4FEDDE90DB0B6
:103670000C995D46002618B909F1010001EB00051F
:10368000B9EB050003D4C0F1FF3609F10105A5EB44
:1036900009002BE0B9F1010F01DA4FF00109002018
:1036A000B9F1110F0090484601DD112300E00346F7
:1036B0000AAA01A90CA8FFF7ADFEDDE90C704D4682
:1036C00000268346207800070AD4AB4500DA5D4621
:1036D00001A8012D04DD411911F8011C302907D082
:1036E0004F4502DA17F1040F04DA0120824610E098
:1036F0006D1EEEE7002F02DCED1B3E4403E0781C5C
:10370000A84200DD0546A7EB060000F1010A4FF0D4
:1037100000472078000703D4AA4501DB4FF0FF3AA9
:103720000021B7F1004F0DF143088DF8431023D06D
:1037300002202B23002F01DA7F422D234FF00A0CA9
:10374000011EA0F1010000DC4FB197FBFCF10CFB66
:1037500011720F4602F1300208F8012DF0E7A8F1CE
:10376000010003702188090501D5452100E065218C
:10377000A0F1010800F8011C09980FA9A1EB0807A6
:1037800007F1070700B1012000EB050101EBEA702A
:10379000A1693844A1EB0000A0F10100A0612078EC
:1037A000C00602D42046FFF794FB099830B1D4E953
:1037B00001219047206A00F1010020622078C006B4
:1037C00020D52046FFF785FB1CE0002E04DBB34527
:1037D00002DD01A8805D00E03020D4E9012190479E
:1037E000206A761C401CBAF1010A20620AD100F05E
:1037F0009DF8C0680168405CD4E901219047206AC7
:10380000401C2062281EA5F10105DEDC07E0D4E99A
:10381000012118F8010B9047206A401C2062381ED5
:10382000A7F10107F3DC2046FFF76AFB022011B085
:1038300040E610B5436913B1AFF3008001E0FFF734
:1038400083FB012010BD127800F124010A700022D0
:103850004A700122EDE711684FF0FF32E9E710B539
:10386000436913B1AFF3008001E0FFF737FC01209B
:1038700010BD128800F1240182840022C28401223A
:10388000EDE711684FF0FF32E9E7007B00F08000C0
:10389000704770B516460C46054600F03FF80368C1
:1038A00093F80101012806D0FF2C0FD8185D68B1EC
:1038B00001202C7070BDD3F8070132462146034425
:1038C0002846BDE8704003F2071318474FF0FF3059
:1038D00070BD754600F0E6F8AE46050069465346F1
:1038E00020F00700854618B020B5FDF73FF9BDE888
:1038F00020404FF000064FF000074FF000084FF057
:10390000000B21F00701AC46ACE8C009ACE8C009E7
:10391000ACE8C009ACE8C0098D46704710B500F0AE
:1039200005F8001D10BD00BFDD090000004870470C
:10393000740300202DE9F0411F4604460326016868
:10394000072A01F4006004DB08B116A505E016A5FE
:1039500003E008B115A500E015A521F010002060D6
:10396000A069C01EA0610FB1401EA0612046FFF7F4
:10397000B0FA4FB1D4E9012138469047206A401C83
:103980002062C01C206206E0206AFAE7D4E9012127
:1039900015F8010B9047761EF8D22046FFF7B0FAD3
:1039A000BDE8F0814E414E006E616E00494E46000A
:1039B000696E66002DE9F047814616468AB03548A3
:1039C0007844D0E9002380680092CDE90130314885
:1039D00078440C38D0E90223006903924FF0370293
:1039E000CDE9043041F69B30014491FBF2F0A0F1A7
:1039F000800502FB10141B3C02D56442012000E04C
:103A00000020DFF890A080460027FA44AAF1C60AF9
:103A10000DE0E00709D03246684607EB47010AEBA4
:103A2000810100F008FB8DE8070064107F1C002C6A
:103A3000EFD1184F7F44B43F17E0E80713D007EBEE
:103A400004100DF1180A90E80E00AAE80E00C068F4
:103A5000F04201D198190890324606A903A800F057
:103A6000EAFA03AB07C36D10641C002DE5D13246A2
:103A70006946B8F1000F03A802D000F0C8FA01E0CF
:103A800000F0D9FAC9E90001C9F808200AB0BDE878
:103A9000F0870000300A00000446AFF300802046A3
:103AA000FCF7C1FB00487047540300204FF0013C75
:103AB00050F8042B51F8043B9A4221D1A2EB0C039D
:103AC000934313EACC1317D150F8042B51F8043B5D
:103AD0009A4215D1A2EB0C03934313EACC130BD1FA
:103AE00050F8042B51F8043B9A4209D1A2EB0C0385
:103AF000934313EACC13DBD04FF00000704700BFB4
:103B0000D01A01BAB1FA81F101F0180122FA01F0DC
:103B1000CB40C1F12001DBB2C0B2C01A2CFA01F3D4
:103B2000D11A914311EAC311E6D170475FEA400C04
:103B300008BF91F0000F4FEA8C234FEAC12243EAFD
:103B400051514FEA1C5018BF00F5F0404FEA3000C9
:103B500018BF41F000415FEA6C5C00F02980BCF1C5
:103B6000FF3F08BF40F080407047130C06BF1204AF
:103B70004FF0100C4FF0000C130E04BF12020CF1AA
:103B8000080C130F04BF12010CF1040C930F04BFB7
:103B900092000CF1020CD30F04BF52000CF1010C87
:103BA00011464FF00002A0F11F00A0EB0C0070477F
:103BB00011F0004F08BF704731F000413FF4D5AF1E
:103BC0000B0C06BF09044FF0100C4FF0000C0B0E4D
:103BD00004BF09020CF1080C0B0F04BF09010CF122
:103BE000040C8B0F04BF89000CF1020CCB0F04BF37
:103BF00049000CF1010CCCF12003A0EB0C0022FADF
:103C000003F302FA0CF241EA030100F101007047EC
:103C100020F07F4C80EA030023F07F47ACEB0703E2
:103C200003F57C5300F0004003F1FF032DE98049C8
:103C30004FEA154B09B44FEA144325EA0B4E24EA28
:103C400003480FF2042606EB132749083E785FEA83
:103C5000320203FB0667C7F5000707FB06F64FEACB
:103C600054374FEAD64606F1020607FB066CCCF144
:103C7000005C4FEA1C472CEA074C07FB06F40CFBE0
:103C800006F504EB15464FEA961634BF00204FF0B8
:103C900000404FEAD13706FB07FC4FEA1C4C0CFBF7
:103CA0000BF7D21B03FB0CF761EB07010CFB0EF7C4
:103CB000B0EB074072EB17420CFB08F734BFA2EBE6
:103CC0000742B2EB074261EB17414FEA0C444FEA5F
:103CD000910706FB07FC4FEA1C4C0CFB0BF7B0EB03
:103CE000C74072EB573203FB0CF734BFA2EBC7425D
:103CF000B2EBC74261EB57310CFB0EF7B0EBC700DC
:103D000072EB57720CFB08F734BFA2EBC702B2EBA1
:103D1000C70261EB5771039F4FEA816141EA92113B
:103D200004EBCC044FEAD1374FEA826206FB07FC72
:103D300042EA90124FEA80604FEA1C4C0CFB0BF7F2
:103D4000D21B03FB0CF761EB07010CFB0EF7B0EB8A
:103D5000074072EB17420CFB08F734BFA2EB074297
:103D6000B2EB074261EB17414FEA8C554FEA9107DE
:103D700004EB9C2406FB07FC4FEA1C4C0CFB0BF7E6
:103D8000B0EBC74072EB573203FB0CF734BFA2EB2A
:103D9000C742B2EBC74261EB57310CFB0EF7B0EBF9
:103DA000C70072EB57720CFB08F734BFA2EBC702D7
:103DB000B2EBC70261EB577115EB4C254FEA8161FD
:103DC00041EA92114FEA82624FEAD13742EA9012F9
:103DD00006FB07FC44F100044FEA80604FEA1C4CEC
:103DE0000CFB0BF7D21B03FB0CF761EB07010CFB81
:103DF0000EF7B0EB074072EB17420CFB08F734BF2D
:103E0000A2EB0742B2EB074261EB174115EB1C1521
:103E10004FEA813141EA92414FEA823242EA9042CE
:103E20004FEA80304FEA0C7644F1000448EA03433D
:103E30004EEA0B484FF0000EB2EB080C71EB030793
:103E400024BF624639464EEB0E0E4FF0000B0018B1
:103E5000524149414BEB0B0BB2EB080C71EB0307E2
:103E60007BF1000B24BF624639464EEB0E0E4FF03D
:103E7000000B0018524149414BEB0B0BB2EB080C05
:103E800071EB03077BF1000B24BF624639464EEB12
:103E90000E0E51EA020718BF46F0010616EB0E7629
:103EA00055F1000254F1000103D5BDE88901BDE8D8
:103EB0000088BDE88901BDE80048B619524141EBD0
:103EC0000101A3F10103704780807F7E7D7C7B7AB6
:103ED0007978777676757473727171706F6E6E6DB6
:103EE0006C6C6B6A6A69686867666665646463635C
:103EF00062616160605F5F5E5E5D5D5C5C5B5B5AE2
:103F00005A5959585857575656555555545453534E
:103F100052525251515050504F4F4F4E4E4D4D4DA9
:103F20004C4C4C4B4B4B4A4A4A49494948484847F4
:103F30004747474646464545454444444443434332
:103F40004342424242414141002B26D4770021D0D6
:103F50001CB54FEA370703B44FF010004FF01001C3
:103F60004FF000000FBCBDE810400BF1010BBBF19E
:103F7000010F08BF5FEA170722BF12F1010211F11A
:103F800001014FF0004143F1000300F0004043EA1B
:103F900000007047F9D35708DAE746EA064613F1FE
:103FA000400F4FEA16461FDD13F1200FDFBF164307
:103FB0000A46002120335B42C8D0C3F1200746EAFD
:103FC000064602FA07F74FEA164646EA0706C3F125
:103FD000200722FA03F201FA07F721FA03F14FF062
:103FE000000342EA0702B1E746EA020646EA06464D
:103FF0004FEA164646EA0106BCBF46EA0646360CBC
:104000004FF000034FF000024FF000019EE72DE952
:10401000C048934630B491E8380007C831EA400CF4
:1040200048BF34EA430C03D5FFF7F2FDFFF78CFFDE
:10403000F0BCBDE800882DE9C048934630B491E853
:10404000380007C810F0804F08BF13F0804F03D12D
:1040500000F005F8FFF778FFF0BCBDE8008820F01D
:104060007F4780EA030023F07F4C07EB0C03A3F5A6
:104070007C5300F00040A3F1FE0392F0000F00F02B
:10408000B38095F0000F00F077802DE901494FEAE9
:1040900011404FEA144621EA004800FB06FC24EADE
:1040A000064708FB06F607FB08F800FB07F718EBC6
:1040B00006484CEB164C4FEA124B18EB07484FEAF8
:1040C00015464CEB174022EA0B4E0BFB06FC25EA8B
:1040D00006470EFB06F607FB0EFE0BFB07F71EEB73
:1040E000064E4CEB164C4FF000061EEB074E4CEB09
:1040F000174B18EB0B0840F1000018EB0E0B58EBB8
:10410000000840F100008F1A4FF000013CBFC94386
:10411000661B14BFB5EB040C00213CBFC943F61B62
:104120004FEA17444EEA8E0E27EA04454FEA1C4731
:1041300004FB07622CEA074C05FB07F70CFB05F6AE
:1041400004FB0CFC16EB074642EB174216EB0C4641
:1041500042EB1C421BEB060658EB0202414146EAC9
:104160009E0601D5BDE80189B619524141EB010116
:10417000A3F10103BDE801894FEA14454FEA114755
:1041800024EA054621EA074C05FB07F406FB07F77E
:104190000CFB06F105FB0CFC11EB074144EB17444B
:1041A0004FEA124711EB0C4144EB1C4422EA074C46
:1041B00005FB07F206FB07F70CFB06F605FB0CFCFC
:1041C00016EB074642EB174216EB0C4642EB1C453A
:1041D0006A1854F1000148BF7047B619524141EBCB
:1041E0000101A3F10103704795F0000F37D04FEAAA
:1041F00011424FEA144721EA024624EA074C02FB27
:1042000007F106FB07F70CFB06F402FB0CFC14EBB2
:10421000074441EB17414FEA154714EB0C4441EBBF
:104220001C4125EA074C02FB07F506FB07F70CFBD0
:1042300006F602FB0CFC16EB074645EB174516EBA2
:104240000C4645EB1C42121951F1000148BF704762
:10425000B619524141EB0101A3F1010370474FEA46
:1042600014454FEA114724EA054621EA074C05FBAD
:1042700007F106FB07F70CFB06F24FF0000605FB03
:104280000CFC12EB074241EB174112EB0C4251EBD5
:104290001C4148BF7047921841EB0101A3F1010393
:1042A0007047490050EAC12018BF04204A0D18BFCA
:1042B00040F0010040F2FF72B2EB515F08BF40F0E6
:1042C0000200012808BF0520704730380A2801D2B3
:1042D000012070470020704710B500290AD00878E7
:1042E000002807D005487844FFF7E0FB002801D0FC
:1042F000002010BD0248784410BD000046010000B7
:104300003E01000010B500290AD00878002807D027
:1043100005487844FFF7CAFB002801D0002010BDF3
:104320000248784410BD0000360100002E01000054
:10433000FFF745B90400000800000000000000027B
:10434000000100001000000000000000000000005C
:1043500030313233343536373839414243444546BB
:1043600040305800303132333435363738396162B5
:10437000636465664030780002400000000000A0E1
:104380000000000005400000000000C80000000020
:104390000C4000000000409C00000000194000009C
:1043A0000020BCBE0000000034400000BFC91B8ECE
:1043B00000000004B5400000504BCFD06607E2CFAC
:1043C000010000006C4100003E8251AADFEEA734DC
:1043D00001000000D9420000DCB5A0E23A301F978E
:1043E000FFFFFFFFB4450000FD25A0C8E9A3C14FB2
:1043F000FFFFFFFFFF3F0000000000800000000003
:10440000FF3F000000000080000000005845000849
:10441000000000207C00000028010008D4450008AE
:104420007C0000203C090000440100081C00000042
:1044300043000000F8FFFFFF0C0000000E0000002A
:104440000F0000002E0000001001000043000000DB
:10445000F8FFFFFF004040404040404040404141A5
:104460004141414040404040404040404040404049
:1044700040404040400502020202020202020202E3
:1044800002020202022020202020202020202002E0
:104490000202020202029090909090901010101070
:1044A000101010101010101010101010101010100C
:1044B00002020202020288888888888808080808A0
:1044C000080808080808080808080808080808086C
:1044D0000202020240000000000000000000000094
:1044E00000000000000000000000000000000000CC
:1044F00000000000000000000000000000000000BC
:1045000000000000000000000000000000000000AB
:10451000000000000000000000000000000000009B
:10452000000000000000000000000000000000008B
:10453000000000000000000000000000000000007B
:10454000000000000000000000000000000000006B
:10455000000000000000000000000000000000005B
:10456000313733787878787878783100494C6F76BD
:10457000654D43552E74616F62616F2E636F6D00E0
:104580003130332E34342E3134352E323038003140
:10459000303338300000000000A24A040000000060
:1045A00000000000010203040607080900000000E3
:1045B00000000000010203040102030406070809C9
:1045C00002040608000000000000000000000000D7
:0445D00000000000E7
:04000005080000ED02
:00000001FF
