:1009F900494C6F76654D43552E74616F62616F2E58
:100A0900636F6D0041542B51474E535352443D225D
:100A19004E4D45412F524D43220D0A004F4B0D0AB1
:100A29000041540D0A0041542B4350494E3F0D0AD1
:100A39000052454144590041542B435245473F0D0B
:100A49000A002C31002C350041542B51474E535389
:100A5900433F0D0A002B51474E5353433A2031006F
:100A690041542B51474E5353433D310D0A004154D4
:100A79002B5149434C4F53450D0A000D0A0041546F
:100A89002B514944454143540D0A000D0A2D2D2D82
:100A99002D2D2D2D2D2D73656E6420415420436F0E
:100AA9006D6D616E643A2D2D2D2D2D2D2D2D2D0D54
:100AB9000A000D0A3D3D3D3D3D3D3D3D3D3D7265D3
:100AC900636569766520415420436F6D6D616E647D
:100AD9003A3D3D3D3D3D3D3D3D3D3D0D0A00256CC9
:100AE900642E256C640025642E003000256C64009A
:100AF90025730041542B51494F50454E3D225443D3
:100B090050222C2200222C38300D0A00434F4E4E21
:100B19004543540041542B514953454E440D0A0055
:100B29003E007B226461746173747265616D732226
:100B39003A5B7B226964223A222573222C22646162
:100B49007461706F696E7473223A5B7B2276616C93
:100B59007565223A7B226C6F6E223A25732C226CC2
:100B69006174223A25737D7D5D7D5D7D00504F5313
:100B790054202F646576696365732F002F6461744F
:100B890061706F696E747320485454502F312E313F
:100B99000D0A006170692D6B65793A00486F7374AD
:100BA9003A00436F6E74656E742D4C656E67746898
:100BB9003A25640D0A0D0A002273756363227D00CC
:100BC9004552524F52004F4B000D0A52455345545E
:100BD9002121212121210D0A002A2A2A2A2A2A2A09
:100BE9002A2A2A2A2A2A2A0D0A002C005361766504
:100BF9005F446174612E55544354696D65203D20ED
:100C090000536176655F446174612E6C6174697427
:100C1900756465203D2000536176655F44617461A8
:100C29002E4E5F53203D2000536176655F44617409
:100C3900612E6C6F6E676974756465203D20005381
:100C49006176655F446174612E455F57203D2000E0
:100C59004750532044415441206973206E6F7420DA
:100C690075736566756C6C210D0A003138332E3247
:100C790033302E34302E3333003332323531383776
:100C8900005239784F354E5A6D366F5649345942AC
:100C9900487643504B4571747759744D41006C6FD8
:100CA900636174696F6E00000000000000000000BD
:100CB900000000000000000000000000000000002B
:100CC900000000000000000000000000000000001B
:100CD900000000000000000000000000000000000B
:100CE90000000000000000000000000000000000FB
:080F39000000000000001A0096
:0C002600041000000000C18D0214000056
:0628CC00E4F5CAF5C92283
:102503001228CC1227247BFF7A0979F91227AE7F90
:10251300C812289A122579121E067537FF75380AD4
:10252300753925E4753DD0753C07F53BF53A753EA5
:102533000A7BFF7A0A790D122269EF64014E600764
:102543007F0A7E001226349002D07401F07E007F51
:10255300787D00FB7A0279581209B5AF197E0078AD
:10256300587C027D017B017A007900120637121F25
:062573005012217880A443
:101E06007537FF75380A753925E4753DB8753C0B8D
:101E1600F53BF53A753E0A7BFF7A0A792A12226962
:101E2600EF64014E60077F017E001226347F0A129E
:101E3600289A7537FF75380A75393AE4753DE8759D
:101E46003C03F53BF53A753E0A7BFF7A0A792F1279
:101E56002269EF64014E60077F027E001226347FFE
:101E66000A12289A7537FF75380A75394B122255AA
:101E7600EF64014E601E7F0A12289A7537FF753887
:101E86000A75394E122255EF64014E60077F037EB4
:101E9600001226347537FF75380A75395EE4753DCC
:101EA600E8753C03F53BF53A753E017BFF7A0A7906
:101EB60051122269EF64014E602C7537FF75380A9E
:101EC600753925E4753D64F53CF53BF53A753E0AF2
:101ED6007BFF7A0A7969122269EF64014E60077FF7
:101EE600047E001226347537FF75380A753984E486
:101EF600753D88753C13F53BF53A753E0A7BFF7ACE
:101F06000A7977122269EF64014E60077F057E0029
:101F16001226347F6412289A7537FF75380A753988
:101F260084E4753D88753C13F53BF53A753E0A7BAE
:101F3600FF7A0A7987122269EF64014E60077F06ED
:0A1F46007E001226347F6402289A00
:10225500E4753DE8753C03F53BF53A753E0A7BFFB1
:042265007A0A794038
:062269008B348A35893632
:10226F00122863E4F53FE53FC3953E400302230F79
:10227F007BFF7A0A79941227AEAB34AA35A93612AE
:10228F0027AEAB34AA35A9361227F8E4F513F512A9
:10229F00F511F510AF3DAE3CAD3BAC3AAB13AA1206
:1022AF00A911A810C312081550487F6412289AE587
:1022BF00132464F513E43512F512E43511F511E426
:1022CF003510F5108537438538448539457B017ABC
:1022DF00007900122481E94A4B60B97BFF7A0A79B1
:1022EF00BB1227AE7B017A0079001227AE7E007FEA
:1022FF000122E4F513F512F511F510053F022275D1
:10230F007BFF7A0A79BB1227AE7B017A0079001224
:08231F0027AE122863E4FEFF63
:012327002293
:0B268A00E0FCA3E0FDA3E0FEA3E0FFE6
:082695008F448E438D428C41FD
:10269D00E4F545F546E4FFFEFDFCAB44AA43A94233
:1026AD00A841D31207FF40230546E54670020545B4
:1026BD00AF44AE43AD42AC41E47B0AFAF9F81200E7
:0F26CD00468F448E438D428C4180CAAE45AF4646
:0126DC0022DB
:061A3E008B328A3389346B
:101A440090059B12084C00000000E490059FF0A351
:101A5400F0A312084C000000009005A512084C00E9
:101A6400000000E4F535F536F53AF539F538F53783
:101A7400F53EF53DF53CF53BF53FF5407544FF7506
:101A8400450A7546E7F547754800754937F54A75BF
:101A94004B00754C3B12142EE47B64FAF9F8AF3A10
:101AA400AE39AD38AC3712075FAC00AD01AE02AF52
:101AB4000390059B120840AB32AA33A93412283B89
:101AC400EF24FFFFEE34FFFEC006C007AF3AAE3985
:101AD400AD38AC37122695AC06C3D0E09FF540D0A4
:101AE400E09CF53FE4F535F536C3E5369540E53F32
:101AF4006480F8E535648098502790059BE0FCA34A
:101B0400E0FDA3E0FEA3E0FFE47B0AFAF9F8120685
:101B1400D490059B1208400536E5367002053580E1
:101B2400C8E47B64FAF9F8AF3AAE39AD38AC371291
:101B3400075F90059FEEF0A3EFF090059BE0FCA3F8
:101B4400E0FDA3E0FEA3E0253EFFEE353DFEED35CE
:101B54003CFDEC353BFC9005A1120840E47F0AFEF5
:101B6400FDFC9005A1E0F8A3E0F9A3E0FAA3E0FBF3
:101B74001206D4E47B06FAF9F812075F9005A11265
:101B840008407544FF75450A7546EF90059FE0F5DA
:101B940047A3E0F5487B017A0579A9120F9DE4F586
:101BA40035F5369005A112268AE5402402CDE435A8
:101BB4003FCDC39FFFED9EFEC3E5369FEE6480F8E4
:101BC400E535648098501C7544FF75450A7546F3E5
:101BD4007B017A0579A91225DC0536E53670020504
:101BE4003580C07544FF75450A7546F59005A1E03A
:101BF400FCA3E0FDA3E0FEA3E0F54A8E498D488CEA
:101C0400477B017A0579BD120F9D75440175450521
:101C14007546BD7B017A0579A91225DC7B017A051D
:021C240079A99C
:011C2600229B
:061C27008B328A33893480
:101C2D0090059B12084C00000000E490059FF0A366
:101C3D00F0A312084C00000000E4F535F536F53A36
:101C4D00F539F538F537F53EF53DF53CF53BF53F06
:101C5D00F5407544FF75450A7546E7F5477548002B
:101C6D00754937F54A754B00754C3B12142EE47BC4
:101C7D0064FAF9F8AF3AAE39AD38AC3712075FAC4C
:101C8D0000AD01AE02AF0390059B120840AB32AA26
:101C9D0033A93412283BEF24FFFFEE34FFFEC006BC
:101CAD00C007AF3AAE39AD38AC37122695AC06C386
:101CBD00D0E09FF540D0E09CF53FE4F535F536C317
:101CCD00E5369540E53F6480F8E53564809850270A
:101CDD0090059BE0FCA3E0FDA3E0FEA3E0FFE47B09
:101CED000AFAF9F81206D490059B1208400536E55C
:101CFD00367002053580C8E47B64FAF9F8AF3AAE68
:101D0D0039AD38AC3712075F90059FEEF0A3EFF0B9
:101D1D0090059BE0FCA3E0FDA3E0FEA3E0253EFFC4
:101D2D00EE353DFEED353CFDEC353BFC9005A1124D
:101D3D000840E47F0AFEFDFC9005A1E0F8A3E0F960
:101D4D00A3E0FAA3E0FB1206D4E47B06FAF9F8123D
:101D5D00075F9005A11208407544FF75450A754649
:101D6D00EF90059FE0F547A3E0F5487B017A0579F3
:101D7D00A5120F9DE4F535F5369005A112268AE5DD
:101D8D00402402CDE4353FCDC39FFFED9EFEC3E55C
:101D9D00369FEE6480F8E535648098501C7544FFDD
:101DAD0075450A7546F37B017A0579A51225DC0583
:101DBD0036E5367002053580C07544FF75450A75E8
:101DCD0046F59005A1E0FCA3E0FDA3E0FEA3E0F540
:101DDD004A8E498D488C477B017A0579B9120F9D42
:101DED007544017545057546B97B017A0579A512CE
:081DFD0025DC7B017A0579A5C4
:011E050022BA
:0616FF008B238A248925DB
:10170500780A7C037D017BFF7A0C79B07E017F909E
:10171500120637789A7C047D017BFF7A0E79407E2C
:10172500007FC812063778627C057D017BFF7A0F42
:1017350079087E007F19120637787B7C057D017B51
:10174500FF7A0F79217E007F0F120637788A7C0594
:101755007D017BFF7A0F79307E007F0F1206377887
:10176500997C057D017BFF7A0F793F7E007F021210
:101775000637AB2CAA2DA92E121A3E8B478A48890B
:10178500497544FF75450A7546F97B017A05797BEC
:10179500120F9DAB2FAA30A931121C278B478A48FF
:1017A50089497544FF75450A7546F97B017A0579BE
:1017B5008A120F9D7E017F907D007B017A03790A55
:1017C5001209B5780A7C037D017BFF7A0A79FC1240
:1017D50009987544FF75450C7546747B017A037944
:1017E5000A1225DC7544FF75450B75460E7B017A9B
:1017F50003790A1225DC7537FF75380B753915E441
:10180500753D10753C27F53BF53A753E037B017A2E
:1018150003790A122269EF64014E60077F077E0093
:101825001226347537FF75380B753929E4753DB8BF
:10183500753C0BF53BF53A753E017BFF7A0B791D3F
:10184500122269EF64014E60077F087E001226347C
:101855007E017F907D007B017A03790A1209B575B7
:1018650044FF75450B75462B852947852A48852BE9
:1018750049754A01754B05754C7B754D01754E05CE
:10188500754F8A7B017A04799A120F9DE490030AB9
:10189500F07544FF75450B7546767B017A03790A29
:1018A5001225DC8526448527458528467B017A0354
:1018B500790A1225DC7544FF75450B7546857B0154
:1018C5007A03790A1225DC7544FF75450B75469C2C
:1018D5007B017A03790A1225DC8523448524458515
:1018E50025467B017A03790A1225DC7544FF754587
:1018F5000A7546847B017A03790A1225DC7544FF53
:1019050075450B7546A57B017A03790A1225DC75A9
:1019150044FF75450C7546747B017A03790A1225D7
:10192500DC7544FF75450A7546847B017A03790A9F
:101935001225DC7B017A04799A12283B8E478F4861
:101945007544FF75450B7546AB7B017A05796212C7
:101955000F9D7544017545057546627B017A0379CE
:101965000A1225DC75440175450475469A7B017A92
:1019750003790A1225DC75370175380375390AE4D0
:10198500753DB8753C0BF53BF53A753E017B017A23
:1019950003790A122269EF64014E60077F097E0010
:1019A5001226347537FF75380B7539C1E4753DB8A6
:1019B500753C0BF53BF53A753E017B017A05799946
:1019C500122269EF64014E60077F0A7E00122634F9
:1019D5007F6412289A7537FF75380A753925E475BD
:1019E5003DB8753C0BF53BF53A753E017BFF7A0A30
:1019F5007977122269EF64014E60077F0B7E001232
:101A050026347F6412289A7537FF75380A7539258B
:101A1500E4753DB8753C0BF53BF53A753E017BFF2A
:101A25007A0A7987122269EF64014E60077F0B7E7F
:091A3500001226347F6402289A95
:0328D700020000FC
:102634008E328F337BFF7A0B79C91227AEE53324B0
:1026440030FF1228B47BFF7A0A79841227AE7537DB
:10265400FF75380B7539CFE4753D64F53CF53BF5F2
:102664003A753E0A7BFF7A0A792A122269EF6401DD
:102674004E700C7BFF7A0B79D21227AE1228D77FCB
:06268400C812289A80C86C
:101F5000E4F5299002D0E07003022091E4F07BFFC9
:101F60007A0B79E21227AE7B017A0279581227AEFA
:101F7000E4F529E52970267543FF75440B7545F393
:101F80007B017A0279581224818B238A248925E9DE
:101F90004A4B60030220837F01FE022080740125EA
:101FA00025F525E43524F5247543FF75440B754567
:101FB000F3AB23FAA9251224818B268A278928E9E5
:071FC0004A4B700302207C74
:101FC700E52924FE60211460311460411460511426
:101FD700606124057077C3E5289525FFE5279524DB
:101FE700FE78D27C028022C3E5289525FFE5279558
:101FF70024FE782A7C007D00804AC3E5289525FFCA
:10200700E5279524FE78DD7C027D018037C3E5282E
:102017009525FFE5279524FE78F17C027D01802434
:10202700C3E5289525FFE5279524FE78F37C027DF7
:10203700018011C3E5289525FFE5279524FE78073C
:102047007C037D01AB23AA24A92512063785262305
:102057008527248528259002D17401F0E52AB4410B
:10206700089003097401F08013E52AB4560EE49032
:032077000309F06A
:10207A0080077F027E001226340529D3E529648071
:07208A0094865003021F734E
:01209100222C
:102178009002D1E07003022254E4F07BFF7A0B79DD
:10218800F51227AE7B017A0279D21227AE7BFF7A4D
:102198000A79841227AE900309E0700302224BE407
:1021A800F07BFF7A0C790A1227AE7B017A0279DD7F
:1021B8001227AE7BFF7A0A79841227AE7BFF7A0C4E
:1021C80079201227AE7B017A0279F11227AE7BFFC4
:1021D8007A0A79841227AE7BFF7A0C79311227AEFE
:1021E8007B017A0279F31227AE7BFF7A0A7984128F
:1021F80027AE7BFF7A0C79481227AE7B017A0379E8
:10220800071227AE7BFF7A0A79841227AEC2CD7FE8
:102218006412289AD2CD7526FF75270C7528827509
:1022280029FF752A0C752BA7752C01752D02752EA3
:10223800F3752F017530027531DD7BFF7A0C798AD1
:0D2248000216FF7BFF7A0C79591227AE2297
:10257900E49002D0F0A3F0900309F0FE7F78FD7B90
:10258900017A0279581209B57E007F0B7D007B0123
:102599007A0279D21209B57E007F147D007B017A17
:1025A9000279DD1209B57E007F027D007B017A0286
:1025B90079F11209B57E007F147D007B017A0279D9
:1025C900F31209B57E007F027D007B017A0379074A
:0325D9000209B53F
:0F289A007D527C03ED1D70011C144C70F7DFF1B3
:0128A900220C
:10003200011700011800C10B011600011900C10CC3
:1027240053877F759850438E40538EFE53890F43D1
:102734008920758BDC758DDCC2ABD28E75AC1043F1
:10274400AC4043D10275D5E075D4FE43D10843AF04
:0627540008D2ACD2AF2256
:0828B4008F993099FDC29922B1
:1027AE008B408A418942AB40AA41A94212065D6024
:1027BE00130542E5427002054114F912065DFF123F
:0527CE0028B480E222A6
:100003008B1A8A1B891C8B438A4489457B007A009F
:0E0013007965122481E94A4B6002D322C32290
:102850007E007F147D007B007A0079651209B5E463
:03286000F5172247
:0300230002275A57
:10275A00C0E0C0D075D008C2AC309815C298746574
:10276A002517F8A6990517E517C39414400375179A
:0D277A0000309902C299D2ACD0D0D0E0322C
:0828BC00200BFD8F9BD20B22C3
:1027D3008B1D8A1E891FAB1DAA1EA91F12065D60D1
:1027E30013051FE51F7002051E14F912065DFF1283
:0527F30028BC80E22279
:030043000223286D
:0D232800C0E0C0F0C083C082C0D075D008F6
:10233500E4FFF52253AFFEE59A20E0030223DDAF6B
:102345009B539AFEBF2403751600E516D3940550DA
:102355000CAE16051674792EF8A60F807B787DE6EF
:10236500B44D047E0180027E007879E6B424047DB4
:102375000180027D00ED5E605F787EE66443705803
:10238500AE16051674792EF8A60FEF640A7038FE9E
:102395007F78FD7B017A0279581209B5AF167E0068
:1023A50078587C027D017B007A0079791206379096
:1023B50002D07401F07516007E007F4C7D007B0015
:1023C5007A0079791209B5E516C3944B400A75165A
:1023D5004B74792516F87600E59A30E105539AFD98
:0523E500C20B43AF0133
:0B23EA00D0D0D082D083D0F0D0E03201
:0828C400200CFD8FADD20C22A7
:1027F8008B408A418942AB40AA41A94212065D60DA
:10280800130542E5427002054114F912065DFF12F4
:0528180028C480E2224B
:10281D008B618A6289638B438A4489457B017A0087
:0E282D007900122481E94A4B6002D322C322B3
:102863007E027F587D007B017A0079001209B5E46E
:03287300F5192232
:03008B000226DD6D
:1026DD00C0E0C083C082C0D053AFF7E5AC30E0217D
:1026ED0053ACFE74002519F582E43400F583E5AD95
:1026FD00F00519C3E5199458748094824003751937
:10270D0000E5AC30E10553ACFDC20C43AF08D0D0B1
:07271D00D082D083D0E0322E
:100F4100E5582444F8E605582278413007027844F0
:100F5100E475F00112088602065D2000EB7F2ED2B7
:100F6100008018EF540F2490D43440D4FF30040B88
:100F7100EF24BFB41A0050032461FFE55960021544
:100F810059055CE55C7002055B30070D7841E4753D
:100F9100F001120886EF0206A30227877403D20725
:100FA1008003E4C207F5588B418A428943E4F5592D
:100FB100F55BF55CE55960077F20120F7C80F575C4
:100FC1005AFFC201C200C202C203C205C206C20860
:100FD100120F4AFF700D3007057F00120F8DAF5CB5
:100FE100AE5B22B4255FC2D5C204120F4AFF24D0E2
:100FF100B40A00501A75F00A785930D50508B6FFC1
:101001000106C6A426F620D5047002D20380D92495
:10101100CFB41A00EF5004C2E5D20402127AD20111
:1010210080C6D20080C0D20280BCD2D580BAD2059F
:1010310080B47F20120F7C2002077401B559004053
:10104100F1120F41FF120F7C020FB5D208D20680B8
:1010510095120F41FB120F41FA120F41F94A4B70E1
:101061000679717A137BFF20022EE559602A7E00F2
:101071008E8275830012067660060EEE655A70F058
:10108100C2D5EBC0E0EAC0E0E9C0E0EE1212DAD06E
:10109100E0F9D0E0FAD0E0FB12065DFF60AAEBC0F8
:1010A100E0EAC0E0E9C0E0120F7CD0E02401F9D011
:1010B100E03400FAD0E0FBE55A0460DCD55AD9806F
:1010C10087D20280A21212BD60F7E55A70010412A4
:1010D100008EA95A600DE55A600914F55A1213647D
:1010E100EF60F3EA30E702F404C3995077EAF4259C
:1010F1005A0430E701E404F55A800D1212BD60C1B3
:10110100EA055A255A12008EEA7857F630E701E4CB
:10111100255A04D55A04200501141212DAE4C0E05C
:101121001213647857E6601320E70714F6120F6470
:10113100802204F6D0E014C0E07F00120F64E55A6B
:101141006007120F5B155A800B300503120F5BD03D
:10115100E0020FB5D0E00480C51212BD60A0E55ACF
:101161000412008E7857EAF6E55A20050260010460
:0511710024041212DA53
:1011760074FF04C0E0121364120F64E55A200502DE
:101186006003120F5BD0E0B55AE87F45120F6E7808
:1011960057E67F2B30E7047F2DF404C0E0120F7C66
:1011A600D0E075F00A84C0F0120F65D0E0120F652A
:1011B600020FB5791080027908C206C2088008D2EB
:1011C600D5790A8004790AC2D5E55A047002F55A1F
:1011D600E4FAFDFEFF120F41FC7B08200113120FFB
:1011E60041FD7B1030000A120F41FE120F41FF7BBA
:1011F60020EC3382D592D55013C3E43000069FFF0E
:10120600E49EFEE42001039DFDE49CFCE4CBF8C2D1
:1012160001EC700CCFCECDCCE824F8F870F3801733
:10122600C3EF33FFEE33FEED33FDEC33FCEB33FB64
:10123600994002FB0FD8E9EB300105F8D0E0C4482D
:10124600B201C0E00AEC4D4E4F78207B0070C2EA36
:10125600B55A0040BCC0E01212DCD0F0D0E020014C
:1012660004C4C0E0C4B201C0F0120F65D0F0D5F0DE
:10127600EB020FB51208A610525311B95810234CA1
:10128600101F4211BD4F11C54411C54910384311F5
:10129600CB5510FC46115A4510C6471391501027DE
:1012A6002D102B2E104E2B102F23104C20137A2A84
:1012B6000FE74800001046E55AB4FF03755A0612B8
:1012C6000F41FC120F41FD120F41FE120F41FF7834
:1012D600500200BD790AA2D5200314300509B910C1
:1012E600020404B9080104A2D52006025001042014
:1012F60002689202B559005034C0E07F20300319CD
:101306007F30A20272067205500F121333C202C258
:1013160006C205C2087F30800F300503E9C0E0121F
:101326000F7C300503D0E0F9D0E0B559CC30051775
:101336007F30B9100C120F7C7F583004077F7880FD
:1013460003B90803120F7C3002057F2D020F7C7F44
:10135600202008F87F2B2006F322920280CF7F0000
:10136600B4070050052450F8E6FF22286E756C6C11
:101376002900D201120F413001F8C201785930D547
:101386000108F6020FE72D50434958120F41240376
:10139600B405004001E490138C93120F6D743A1259
:0A13A6000F6DD2037559040211B94E
:1013B000E55630030104F823282444F8227841300C
:1013C00003027844E475F00112088602065D60ECC1
:1013D000C55A7002155914C55A200304FF0228D2B9
:1013E000784174FFF5F0020896FF022876E5576011
:1013F00006D557037F002220030F122889EF6008CB
:10140000055AE55A7002055922784112087D1206E4
:101410005DFF60E97841E475F00112088680DE1214
:1014200013F7EFC0E01213E9D0E040F380A0D2033D
:101430008002C2038B418A428943E4F558F556F590
:1014400059F55A755700C202C200C201C2041213F4
:10145000BDFF7005AF587E0022B425301213BDFFCA
:1014600024D0B40A00500C75F00AC557A42557F5CE
:101470005780E924CFB41A00EF5002C2E50216CB20
:10148000D20180D8D20080D4D20480D0EF1213E9E8
:10149000500812141FEF600E80A9EFC0E01213F77E
:1014A000D0E06F609EEF60741213CE80A71213F726
:1014B000EF6069E5577007055780031213F7EF6077
:1014C0001420040E1213B0E475F001120886EF1216
:1014D00006A3D557E62004040556055880BA121312
:1014E000EDEFC0E01213E9D0E050041213CEE4FF98
:1014F00020040E1213B0E475F001120886EF1206F4
:10150000A3EF70DA20040405560558808BE5576078
:1015100002055712141F1213EDEF70C6300304E4D6
:101520001213CEE55860030214547EFF7FFF22E5BC
:10153000576002055712141FD206D2051213EDEFA1
:1015400030060260D7C0E01213CED0E0AC5BAD5CD9
:10155000AE5DAF5E1220A58C5B8D5C8E5D8F5E50A4
:10156000071213F7C20580D4200410200502055885
:081570001213B012087D0556AC
:10157800120826021443D0E0809A7900800A791074
:10158800800679088002790AD205E5576002055776
:10159800E9C0E012141FEF60DD1213F7BF2D04D26B
:1015A800028003BF2B0912141FEF60CA1213EDD07B
:1015B800E0B40A028033B40802802EBF30277002DC
:1015C8007408C205C0E01213EDD0E0BF78028003B2
:1015D800BF58160557D557028007D55704D205803E
:1015E8000B741080197002740ABF000AEFF8E4FC4B
:1015F800FDFEFF02167EC0E0EF1213CED0E0F9E444
:10160800FCFDFEFFE9C0E0ECC0E0EDC0E0EEC0E0AC
:10161800EFC0E01213EDEFF8D0E0FFD0E0FED0E02D
:10162800FDD0E0FCD0F0E8604DB461004007B47B29
:10163800005002C2E524D0503DFA24F6500724F9A0
:101648005034240AFAEAB5F000502BCFA9F0A42FA1
:10165800FF92D5E9C5F0CEA4A2D53EFE92D5E9C544
:10166800F0CDA4A2D53DFD92D5E9C5F0CCA4A2D574
:101678003CFCC205808EE8C0E020042A200508054D
:10168800583002031207F11213B012087D055620D4
:10169800000B20010DEE8FF01206B5800912082606
:1016A8008004EF1206A3D0E01213CE0214432004E4
:1016B800101213B012087D0556E559855AF0120626
:1016C800B580E81208A6150D5315865814844C14D5
:1016D8008042145C48158A4F158E4414AD43158218
:1016E80049158E55152F46152F45152F4714882A4D
:0716F80016B64E0000148C31
:10008E00F920E72824F950037907E4F42402FB1839
:10009E00DBFDE624FB5014E9600DE4F618E604F6E9
:0F00AE00B40A08E4F6D9F57401F60A22C2D52285
:1000BD00ED33EC3392D5FA602AB4FF33EDC2E77B12
:1000CD00FF60067A0079E2E4227A0079EB20D5040C
:1000DD007A0079E6224E614E002B494E46002D499D
:1000ED004E4600E47A08F608DAFC7B00740722E835
:1000FD00C0E0ECC0E0EDC0E0EEC0E0EFC0E0EA75BE
:10010D00F010A4CAABF075F04DA42BFBE435F0FC58
:10011D00EA2410FAEB34C5FBEC34D9FCEDC2E7FF51
:10012D0075F056A4F42411C5F0F434C58FF0A42A4B
:10013D00E5F03BE43CF620E714120527D0E0FFD0B4
:10014D00E0FED0E0FDD0E0FC12040B8014F40412AC
:10015D000527D0E0FFD0E0FED0E0FDD0E0FC12039B
:10016D0002D0E0F8E6FAEDD2E7CD33EC332482FB92
:10017D00E4C3CF33CFCE33CECD33CD33DBF37B07DB
:10018D0075F00A846004F6081B0AE5F0F6088FF096
:10019D00740AA4FFACF08EF0740AA42CFEACF050DF
:1001AD00010C8DF0740AA42CFDE435F0F608DBDEAD
:0301BD00740722A2
:10209200C207C208C209C20AF9E4F55FF560FCFD95
:1020A200FEFFE91006EA20090CB42D04D209D3225E
:1020B200B42B02D32224D0504794095041240A3031
:1020C2000A15F88560F0740AA42872E74051C5F039
:1020D200704D85F060D322D208C0E0E4FBFA79208B
:1020E2007841120302ECF8EDF9EEFAEFFBD0E0FCD6
:1020F200E41204C31202113007B4155FD322240A7A
:10210200200A20B4FE0720071AD207D32224EB604C
:102112000424E0700EA2099207D20AC209D322C394
:102122000201F5E4300A0BE560300902F404A2076B
:1021320092093008EA255F20D2E5A2E7920A50020E
:10214200F404B4260050D8CCC0E0EDC0E0EEC0E00C
:10215200EFC0E0EC120527D0E0FFD0E0FED0E0FDBA
:10216200D0E0FC200A05120302800312040B30099E
:06217200031204A8C322C1
:1001C000E9D2E7C933E833F892D5EDD2E7CD33EC85
:0701D00033FC5002B2D522FE
:1001D700EC30E7100FBF000C0EBE00080DBD000489
:1001E7000BEB6014A2D5EB13FCED92E7FD2274FF35
:1001F700FCFDFEFF22E480F8A2D574FF13FC7D808E
:03020700E480EFA1
:10020A000201F5E86480F8E933E83360110460F02C
:10021A00ED33EC337009E8FCE9FDEAFEEBFF22045A
:10022A0060DED3EB9FEA9EE99DE8C2E78CF0C2F755
:10023A0095F0400CE8CCF8E9CDF9EACEFAEBCFFB21
:10024A001201C085D0F05804700320D5B3E80470B9
:10025A00075002B2D50201FF92D5EC0460F7E4CC54
:10026A00C0E0C398F8603B94186008400DD0E0FBEA
:10027A000201D7E4FBFAC9FC8028E830E406E4C9A5
:10028A00FBE4CAFCE830E305E4C9CACBFCE854073E
:10029A006010F8C3E913F9EA13FAEB13FBEC13FC49
:1002AA00D8F130F52FC3E49CFCEF9BFFEE9AFEEDEC
:1002BA0099FDD0E0FBEF4E4D4C701222DB03020198
:1002CA00FCEC2CFCEF33FFEE33FEED33FDED30E7B3
:1002DA00EB0201D7EF2BFFEE3AFEED39FDD0E0FB42
:1002EA0050130BBB00030201FFED13FDEE13FEEFEB
:0802FA0013FFEC13FC0201D715
:10030200EC4D6011E8497017ED33EC3304600DE4F5
:10031200FCFFFEFD22E933E8330470F80201F51216
:1003220001C058046009E4CC248150062850090217
:1003320001FF2840030201FCC0E0EB4A7044B9808F
:1003420006D0E0FB0201EBEF4E701CBD8008EBFF14
:10035200EAFEE9FD80EBE98DF0A4FEE5F00203EB95
:10036200E9CDF9EAFEEBFFEF89F0A4FCE5F0CE89D6
:10037200F0A42EFFE435F0CD89F0A42DFEE435F093
:100382008067EF4E7005BD80D780C3EF8BF0A4ACC1
:10039200F0EE8BF0A42CFCE435F0F8EF8AF0A42CFC
:1003A200E5F038FCE433CB8DF0A42CFCE5F03BF80F
:1003B200EE8AF0A42CFCE5F038F8E433CF89F0A4FF
:1003C2002CFCE5F038CF3400CE89F0A42FFFE5F005
:1003D2003EFEE433C98DF0A42EFEE5F039CD8AF05D
:1003E200A42FFFE5F03EFEE43DFD33D0E0FB5007D5
:1003F2000BBB000F0201FFEC2CFCEF33FFEE33FED0
:06040200ED33FD0201D7FD
:100408000201FFEC5D046005E8590470030201F580
:100418001201C0580460F6EC4860F2EC7004FDFE6E
:10042800FF22C860DB2481C85009C39860025006C7
:100438000201FC9850CAF582E9294B4A7005AB8243
:100448000201EB75F0007C1A7880C3EF9BEE9AED01
:1004580099400DC3EF9BFFEE9AFEED99FDE842F03F
:10046800DC23ACF0D0E0FFD0E0FED0E0FDAB822092
:10047800E7101BEB60BAEC2CFCEF33FFEE33FEED1C
:1004880033FD0201D7E803F830E705C0F075F00046
:10049800EF2FFFEE33FEED33FD40B830E7C280AA00
:1004A800ED33EC33600A047003BD8004ECB2E7FC62
:0104B8002221
:1004B90075F020800E75F010800575F0087D007EBE
:1004C900007F003392D530D5031207F1EC33401089
:1004D900EF33FFEE33FEED33FDEC33FCD5F0ED22C7
:0E04E900E5F0247EA2D513CC92E7CDCEFF2203
:1004F7003F8000004120000042C80000447A00000D
:10050700461C400047C35000497424004B1896808E
:100517004CBEBC205A0E1BCA6753C21C749DC5AE85
:10052700FB60065407601C2323120555EB54386003
:1005370009120541120550120302ECF8EDF9EEFA23
:10054700EFCB22EB12055080F1543803241C9004A2
:10055700F7FE93FC0EEE93FD0EEE930ECE93FF2265
:030000000223F5E3
:0C23F500787FE4F6D8FD7581C402243C1A
:10056700E709F608DFFA8046E709F208DFFA803E76
:1005770088828C83E709F0A3DFFA8032E309F60863
:10058700DFFA8078E309F208DFFA807088828C83CB
:10059700E309F0A3DFFA806489828A83E0A3F6087F
:1005A700DFFA805889828A83E0A3F208DFFA804C59
:1005B70080D280FA80C680D4806980F28033801030
:1005C70080A680EA809A80A880DA80E280CA803399
:1005D70089828A83ECFAE493A3C8C582C8CCC58311
:1005E700CCF0A3C8C582C8CCC583CCDFE9DEE780E1
:1005F7000D89828A83E493A3F608DFF9ECFAA9F060
:10060700EDFB2289828A83ECFAE0A3C8C582C8CCB5
:10061700C583CCF0A3C8C582C8CCC583CCDFEADECE
:10062700E880DB89828A83E493A3F208DFF980CC30
:1006370088F0EF60010E4E60C388F0ED2402B40429
:100647000050B9F582EB2402B4040050AF232345D0
:0606570082239005B77339
:10065D00BB010689828A83E0225002E722BBFE029B
:09066D00E32289828A83E49322CE
:10067600BB010CE58229F582E5833AF583E0225039
:1006860006E92582F8E622BBFE06E92582F8E22283
:0D069600E58229F582E5833AF583E493229D
:1006A300BB010689828A83F0225002F722BBFE0136
:0206B300F32230
:1006B500BB010A89828A83F0E5F0A3F0225006F790
:0F06C50009A7F01922BBFE06F3E5F009F319228D
:1006D400E88FF0A4CC8BF0A42CFCE98EF0A42CFCC5
:1006E4008AF0EDA42CFCEA8EF0A4CDA8F08BF0A443
:1006F4002DCC3825F0FDE98FF0A42CCD35F0FCEBA2
:100704008EF0A4FEA9F0EB8FF0A4CFC5F02ECD3966
:0F071400FEE43CFCEAA42DCE35F0FDE43CFC22D3
:1007230075F008758200EF2FFFEE33FECD33CDCC8D
:1007330033CCC58233C5829BED9AEC99E582984010
:100743000CF582EE9BFEED9AFDEC99FC0FD5F0D6ED
:10075300E4CEFBE4CDFAE4CCF9A88222B800C1B917
:100763000059BA002DEC8BF084CFCECDFCE5F0CB55
:10077300F97818EF2FFFEE33FEED33FDEC33FCEB8E
:1007830033FB10D703994004EB99FB0FD8E5E4F949
:10079300FA227818EF2FFFEE33FEED33FDEC33FC36
:1007A300C933C910D7059BE99A4007EC9BFCE99A2A
:1007B300F90FD8E0E4C9FAE4CCFB2275F010EF2F6F
:1007C300FFEE33FEED33FDCC33CCC833C810D7076F
:1007D3009BEC9AE899400AED9BFDEC9AFCE899F8AA
:0E07E3000FD5F0DAE4CDFBE4CCFAE4C8F9223D
:10004600C2D5E830E70FB2D5E4C39BFBE49AFAE4E5
:1000560099F9E498F8EC30E717B2D512007C12074C
:100066005FE4C39BFBE49AFAE499F9E498F8800309
:1000760012075F30D50DE4C39FFFE49EFEE49DFDAD
:04008600E49CFC22D8
:0E07F100C3E49FFFE49EFEE49DFDE49CFC2219
:1007FF00EB9FF5F0EA9E42F0E99D42F0EC6480C871
:06080F0064809845F02210
:10081500EB9FF5F0EA9E42F0E99D42F0E89C45F039
:0108250022B0
:10082600BB010789828A830208405005E9F802095C
:0A083600E1BBFE05E9F80209ED221E
:0C084000ECF0A3EDF0A3EEF0A3EFF0222B
:10084C00A8828583F0D083D08212086312086312C9
:10085C000863120863E473E493A3C583C5F0C583EE
:10086C00C8C582C8F0A3C583C5F0C583C8C582C8F6
:01087C002259
:09087D00E6FB08E6FA08E6F922A0
:10088600FAE6FB0808E6F925F0F618E6CA3AF62273
:10089600FAE6FB0808E625F0F9F618E63AFAF62233
:1008A600D083D082F8E4937012740193700DA3A3E1
:1008B60093F8740193F5828883E4737402936860F5
:0608C600EFA3A3A380DFF5
:10278700EFB40A07740D122792740A309811A899AA
:10279700B8130CC2983098FDA899C298B811F630B2
:0727A70099FDC299F599228A
:10288900100E0B1228AABF0D027F0A022787AF6418
:01289900221C
:0528D2008F64D20E220C
:10287600EFC394094005EF940E4003BF2003D380B5
:0328860001C32269
:1025DC008B418A4289438B478A488949AB410543E1
:1025EC00E543AA427002054214F912065D70ED74BF
:1025FC00FF2543F54374FF3542F542AB440546E5F0
:10260C0046AA457002054514F912065DFFAB41055B
:10261C0043E543AA427002054214F9EF1206A37077
:08262C00DAAB47AA48A94922D4
:1008CC00E709F60870FA8046E709F20870FA803EEC
:1008DC0088828C83E709F0A370FA807EE309F6081E
:1008EC0070FA8076E309F20870FA806E88828C8345
:1008FC00E309F0A370FA806289828A83E0A3F60888
:10090C0070FA805689828A83E0A3F20870FA804AD2
:10091C0080D280FA80C680D4806580F280318010CD
:10092C0080A680EA809A80A880DA80E280CA803132
:10093C0089828A83ECFAE493A3C8C582C8CCC583A8
:10094C00CCF0A3C8C582C8CCC583CC70E9800D8916
:10095C00828A83E493A3F60870F9ECFAA9F0EDFB14
:10096C002289828A83ECFAE0A3C8C582C8CCC583ED
:10097C00CCF0A3C8C582C8CCC583CC70EA80DD8915
:10098C00828A83E493A3F20870F980CE88F0ED2478
:10099C0002B4040050C4F582EB2402B4040050BA33
:0909AC00232345822390091C73EA
:10283B00E4FFFE12065D600C0FEF70010E09E970EC
:05284B00F20A80EF22FB
:102481008B408A418942AB43AA44A94512065D604B
:1024910063AB40AA41A94212065D605F8543468550
:1024A10044478545488B498A4A894BAB46AA47A987
:1024B1004812065DFF6023AB49AA4AA94B12065D8B
:1024C1006F7017042548F548E43547F54774012531
:1024D1004BF54BE4354AF54A80D1AB46AA47A948AA
:1024E10012065D7002800D74012542F542E435410A
:1024F100F541809DAB40AA41A942227B007A007937
:022501000022B6
:1009B500EF4E6012EF60010EEDBB010B89828A8359
:1009C500F0A3DFFCDEFA2289F05007F709DFFCA966
:0C09D500F022BBFEFCF309DFFCA9F022BD
:10240100022503E493A3F8E493A34003F68001F2C9
:1024110008DFF48029E493A3F85407240CC8C333DC
:10242100C4540F4420C8834004F456800146F6DFAB
:10243100E4800B0102040810204080900026E47E15
:10244100019360BCA3FF543F30E509541FFEE493A0
:10245100A360010ECF54C025E060A840B8E493A367
:10246100FAE493A3F8E493A3C8C582C8CAC583CA92
:10247100F0A3C8C582C8CAC583CADFE9DEE780BE4A
:0100420000BD
:0C09E100ECF608EDF608EEF608EFF62242
:0C09ED00ECF208EDF208EEF208EFF22246
:0A28AA003098FDAF99C2987E00221D
:00000001FF
